:020000040800F2
:10000000203A00202D0400082502000827020008DD
:100010002B0200082F020008330200080000000035
:10002000000000000000000000000000370200088F
:1000300039020008000000003B02000845040008E7
:100040004704000847040008470400084704000864
:100050004704000847040008470400084704000854
:100060004704000847040008470400084704000844
:100070004704000847040008470400084704000834
:100080004704000847040008470400084704000824
:100090003F0200084704000847040008470400081E
:1000A0004704000847040008470400084704000804
:1000B0004704000847040008E1010008470400085D
:1000C00047040008470400084704000847040008E4
:1000D00047040008D5010008470400084704000849
:1000E000470400084704000841020008DFF80CD06C
:1000F0000CF000FD0048004721010008203A0020D4
:10010000EFF30980704780F309887047EFF30880A8
:10011000704780F30888704740BA7047C0BA70478C
:100120000121042001F050FC0121082001F04CFCC9
:100130000121102001F048FC0121480201F044FC9B
:100140000121084601F040FC0121880301F03CFC3C
:1001500001212D4801F06CF80121042001F041FC3F
:100160000121480501F03DFC4FF4E13008F026FF85
:1001700001200AF050F802200AF04DF803200AF09E
:100180004AF804200AF047F808F0D0FF1F48D0F8DA
:100190001C1C88471E48416E88471AE002F042FC4A
:1001A0001B48543002F01FFC012802D11848C16ED0
:1001B0008847184802F017FC012807D11348D0F8E7
:1001C000281C88471148D0F8241C88470A2002F0D0
:1001D0002DFCE3E710B50D48D0F8201C884710BD72
:1001E00010B501210C4802F01FFA0C4808F01DFA66
:1001F0000B4808F03DF902F0E7FB022009F0F8FF98
:10020000042009F0F5FF10BD000230008C01002031
:10021000C8160020980D0020000800407417002028
:10022000B8160020704700BFFEE700BFFEE700BF22
:10023000FEE700BFFEE770477047704770477047A2
:1002400010B54FF4802000F01EFC10BD0CB500204E
:10025000019000906C48006840F480306A49086062
:1002600000BF6948006800F4003000900198401C0D
:100270000190009818B90198B0F5A06FF1D16248CB
:10028000006800F4003010B10120009001E000206F
:1002900000900098012843D15C48006840F01000AD
:1002A0005A4908600846006820F0030008600846C4
:1002B000006840F0020008605348406852494860B6
:1002C0000846406848600846406840F480604860DE
:1002D0000846406820F47C1048600846406840F4B6
:1002E000E81048600846006840F08070086000BF71
:1002F0004548006800F000700028F9D04248406886
:1003000020F00300404948600846406840F0020081
:10031000486000BF3C48406800F00C000828F9D154
:100320000CBD10B5FFF792FF10BD10B53648006840
:1003300040F00100344908600846406834490840EC
:100340003149486008460068324908402E49086033
:100350000846006820F4802008600846406820F4C1
:10036000FE0048604FF41F008860FFF7DAFF4FF08F
:1003700000602949086010BD10B50021002000224E
:10038000214B5B6803F00C0121B1042906D0082938
:1003900028D107E0214B224C236027E01F4B204C43
:1003A000236023E0184B5B6803F47010164B5B6806
:1003B00003F48032022303EB904022B9194B4343EC
:1003C000174C23600DE0104B5B6803F4003323B13E
:1003D000144B4343124C236003E0104B4343104C37
:1003E000236003E00D4B0E4C236000BF00BF064BA3
:1003F0005B68C3F303130C4CE15C094B1B68CB40F7
:10040000074C236010BD0000001002400020024095
:100410000000FFF8FFFFF6FE08ED00E000127A0092
:100420000000002000093D0004000020064880472D
:1004300006480047FEE7FEE7FEE7FEE7FEE7FEE7C9
:10044000FEE7FEE7FEE7FEE72B030008ED000008ED
:1004500031490143314A1160704770B500210023D2
:100460000F22C47804B32D4C246804F4E064C4F56E
:10047000E064210AC1F10403CA40447804FA03F19C
:100480008478144021430901254C0678A15504784D
:1004900004F01F050124AC4005786D11AD0005F195
:1004A000E025C5F8004109E0047804F01F050124A7
:1004B000AC401C4D0678761145F8264070BD1A4AAE
:1004C0000A400243154B1B1F1A60704739B1134A8B
:1004D000121D12680243114B1B1D1A6006E00F4AE1
:1004E000121D126882430D4B1B1D1A6070470428B1
:1004F00008D14FF0E021096941F004014FF0E022FA
:10050000116107E04FF0E021096921F004014FF08B
:10051000E0221161704700000000FA050CED00E0D8
:1005200000E400E080E100E080FFFF1F10B504461A
:10053000F748204430B1B0F5806F0DD0B0F5C05F02
:100540001ED113E00121480201F058FA00214FF4B6
:10055000007001F053FA14E00121880201F04EFA14
:1005600000214FF4806001F049FA0AE00121C8033C
:1005700001F044FA00214FF4004001F03FFA00E09E
:1005800000BF00BF10BD30B50246002000235068F8
:10059000E04C20400D790C6844EA0524204350606B
:1005A0009068DD4C2040D1E902542C434D7944EA57
:1005B000450420439060D06A20F470000C7C641ED7
:1005C0001C43E3B240EA0350D06230BD0021016019
:1005D000017141718160C16001210174704721B1D5
:1005E000826842F00102826003E0826822F0010228
:1005F0008260704721B1826842F48072826003E0B9
:10060000826822F480728260704710B50023CBB2FA
:100610001AB144681C43446002E044689C4344604F
:1006200010BD816841F008018160704701460020DB
:100630008A6802F008020AB1012000E00020704739
:10064000816841F0040181607047014600208A689A
:1006500002F004020AB1012000E00020704721B13D
:10066000826842F4A002826003E0826822F4A00261
:1006700082607047014600208A6802F480020AB155
:10068000012000E00020704710B50A460021002339
:10069000416821F46041531E41EA4331416010BD7D
:1006A00021B1426842F40062426003E0426822F4F1
:1006B000006242607047F0B504460D4600200021FC
:1006C000092D11DDE068A5F10A0606EB46070726AD
:1006D00006FA07F18843A5F10A0606EB460603FA77
:1006E00006F10843E0600CE0206905EB45070726AA
:1006F00006FA07F1884305EB450603FA06F10843BD
:100700002061072A0FDA606B561E06EB86071F264C
:1007100006FA07F18843561E06EB860605FA06F12F
:100720000843606322E00D2A0FDA206BD61F06EB28
:1007300086071F2606FA07F18843D61F06EB8606B2
:1007400005FA06F10843206310E0E06AA2F10D0605
:1007500006EB86071F2606FA07F18843A2F10D066D
:1007600006EB860605FA06F10843E062F0BD21B10A
:10077000826842F48012826003E0826822F4801270
:10078000826070470146C86C80B270476348006859
:10079000704721B1426842F48062426003E04268DF
:1007A00022F480624260704721B1426842F4805274
:1007B000426003E0426822F48052426070470A4679
:1007C0000021816821F4E04111438160704721B12B
:1007D000826842F40042826003E0826822F40042B0
:1007E0008260704721B1826842F40212826003E0A5
:1007F000826822F4021282607047014600208A68F3
:1008000002F400120AB1012000E000207047F0B5A8
:1008100004461546002000220026092911DDE06863
:10082000A1F10A0707EB470C072707FA0CF29043E0
:10083000A1F10A0707EB470703FA07F21043E0604C
:100840000CE0206901EB410C072707FA0CF29043FA
:1008500001EB410703FA07F210432061A06BC0F3DC
:100860000156EF1C06F1010CA7EB0C0707EB870CF8
:100870001F2707FA0CF29043EF1C06F1010CA7EBBF
:100880000C0707EB870701FA07F21043A063F0BDDE
:1008900010B50A4600210023816B21F44011531E3C
:1008A00041EA0351816310BD42507047024650181F
:1008B000806A80B270470A4600214168184B19408F
:1008C0001143416070474162826270470A460021CD
:1008D000416821F01F0111434160704740B10F4949
:1008E0004439096841F400010C4A443A116007E0B8
:1008F0000A494439096821F40001084A443A116060
:1009000070470246002013680B405BB101200AE0EB
:1009100000DCFEBFFFFEF0FFFDF7F1FF4C240140BD
:10092000FFFD3FFF00207047CA430260704770B56B
:1009300002460020002300240B125568CEB205EABF
:10094000060415681D4015B10CB1012000E000201F
:1009500070BD00220A12D3430360704700204C4947
:100960000860091D0860091D0860091D08604948E4
:1009700047491431086070478179002946D04449BD
:10098000096802689143424A1160111D09680268B2
:1009900091433F4A121D116001793F4A1144D1F839
:1009A00000140268114302793B4B1A44C2F8001448
:1009B00037490831096802689143354A08321160A5
:1009C000111D096802689143314A0C321160417966
:1009D00010290ED1111F0968026811432C4A0832F0
:1009E0001160111D096802681143294A0C32116017
:1009F00018E04179284A1144D1F8001402681143E3
:100A00004279254B1A44C2F800140BE00179224ABE
:100A10001144D1F800140268914302791E4B1A4424
:100A2000C2F8001470470021016001710C2141716E
:100A30000021817170471649103109680143144A39
:100A400010321160704701460020114A14321268BA
:100A50000A400AB1012000E0002070470C4914311F
:100A600008607047014600200022094B1B6803EA1A
:100A70000102074B14331B680B4013B10AB101206C
:100A800000E0002070470249143108607047000000
:100A900000040140FFFF0700000001400146002064
:100AA000FB4A106800F03800084310607047F849AE
:100AB000096821F00801F64A1160114609680143EE
:100AC00011607047F249096821F01001F04A116085
:100AD00011460968014311607047EE48EC494860CF
:100AE000ED4848607047EA48006940F08000E849F6
:100AF000086170470420E649C96801F0010109B1A5
:100B000001200EE0E249C96801F0040109B10220A8
:100B100007E0DF49C96801F0100109B1032000E0D6
:100B20000420704708B500200090FF20009002E0EC
:100B30000098401E009000980028F9D108BD70B5BB
:100B400004460425FFF7D6FF054605E0FFF7EAFF58
:100B5000FFF7D0FF0546641E012D01D1002CF5D111
:100B600004B90525284670BD70B50546042440F635
:100B7000FF70FFF7E4FF0446042C19D1C448006954
:100B800040F00200C249086108464561006940F032
:100B90004000086140F6FF70FFF7D1FF0446012CCA
:100BA00006D0BB48006941F6FD710840B8490861AC
:100BB000204670BD10B5042440F6FF70FFF7BFFF5C
:100BC0000446042C18D1B248006940F00400B04932
:100BD00008610846006940F04000086140F6FF7077
:100BE000FFF7ADFF0446012C06D0A948006941F685
:100BF000FB710840A6490861204610BD10B50424C9
:100C000040F6FF70FFF79BFF0446042C3BD1A14840
:100C10009F498860A04888600846006940F020002D
:100C200008610846006940F04000086140F6FF7026
:100C3000FFF785FF0446042C1CD19548006941F656
:100C4000DF710840924908610846006940F01000D1
:100C50000861A520914908800F20FFF770FF044626
:100C6000012C10D08A48006941F6EF71084088498C
:100C7000086108E0012C06D08548006941F6EF7153
:100C8000084083490861204610BD70B505460E46F0
:100C900004240F20FFF753FF0446042C25D17C4881
:100CA000006940F001007A4908612E800F20FFF7AB
:100CB00046FF0446042C0FD1300C68800F20FFF74C
:100CC0003EFF0446012C10D07148006941F6FE71C8
:100CD00008406F49086108E0012C06D06C480069A3
:100CE00041F6FE7108406A490861204670BD70B542
:100CF00005460E4604240F20FFF721FF0446042C6E
:100D000013D16348006940F00100614908612E80F9
:100D10000F20FFF714FF0446012C06D05C48006941
:100D200041F6FE7108405A490861204670BD70B511
:100D300005460E4604240F20FFF701FF0446042C4D
:100D400017D1544852498860534888600846006962
:100D500040F0100008612E800F20FFF7F0FE0446DF
:100D6000012C06D04A48006941F6EF710840484915
:100D70000861204670BD2DE9F04704464FF6FF7626
:100D80003746B046B1460425E443E6B2C4F307272C
:100D9000C4F307484FEA14690F20FFF7D0FE054659
:100DA000042D40D13B483A4988603B48886008465A
:100DB000006940F010000861FF2E06D03748083067
:100DC00006800F20FFF7BBFE0546042D08D1FF2F3C
:100DD00006D032480A3007800F20FFF7B0FE0546E4
:100DE000042D0AD1B8F1FF0F07D02C480C30A0F821
:100DF00000800F20FFF7A3FE0546042D0AD1B9F1AC
:100E0000FF0F07D025480E30A0F800900F20FFF705
:100E100096FE0546012D06D01D48006941F6EF718A
:100E200008401B4908612846BDE8F08770B50546B3
:100E3000042440F6FF70FFF782FE0446042C4AD1DA
:100E4000144813498860144888600846006940F0D7
:100E5000200008610846006940F04000086140F643
:100E6000FF70FFF76CFE0446042C2BD10848006984
:100E700041F6DF710840064908610846006940F004
:100E80001000086165B10020044908800BE00000F3
:100E90000020024023016745AB89EFCD00F8FF1F1A
:100EA000A5204549088040F6FF70FFF748FE04463C
:100EB000012C10D04148006941F6EF7108403F49CC
:100EC000086108E0012C06D03C48006941F6DF715A
:100ED00008403A490861204670BD2DE9F0410746B7
:100EE0000D461646042436483449886035488860E3
:100EF0000F20FFF724FE0446042C1AD12F48006966
:100F000040F010002D49086147EA0500304340F0E9
:100F1000F8002949891C08800F20FFF710FE0446BD
:100F2000012C06D02548006941F6EF71084023499D
:100F300008612046BDE8F0812048C06980087047FC
:100F40001E48006A704700201C49C96901F002016F
:100F500009B1012000E0002070470020174909680E
:100F600001F0200109B1012000E00020704729B103
:100F7000124A12690243114B1A6104E00F4A1269C6
:100F800082430E4B1A61704701460020012908D1A7
:100F90000A4AD26902F001020AB1012008E00020E9
:100FA00006E0064AD2680A400AB1012000E00020AB
:100FB00070470249C860704700F8FF1F00200240D8
:100FC00023016745AB89EFCD10B50446C349601ACC
:100FD0008C422FD009DCC248204480B1B0F5806F2C
:100FE00016D0B0F5006F4AD11BE0B0F5806F2AD063
:100FF000B0F5006F30D0B0F5406F40D135E0012141
:10100000042000F0FBFC0021042000F0F7FC37E096
:101010000121082000F0F2FC0021082000F0EEFC85
:101020002EE00121102000F0E9FC0021102000F04A
:10103000E5FC25E00121202000F0E0FC002120203B
:1010400000F0DCFC1CE00121402000F0D7FC002176
:10105000402000F0D3FC13E00121802000F0CEFC02
:101060000021802000F0CAFC0AE00121080200F003
:10107000C5FC00214FF4807000F0C0FC00E000BF10
:1010800000BF10BD10B50121084600F0B7FC0021DB
:10109000012000F0B3FC10BD2DE9F041024600250F
:1010A0000026002000230024002791F803C00CF044
:1010B0000F0591F803C00CF0100CBCF1000F03D029
:1010C00091F802C04CEA050591F800C0BCF1000F90
:1010D00031D0146800202BE04FF0010C0CFA00F323
:1010E000B1F800C00CEA03069E4220D183004FF005
:1010F0000F0C0CFA03F7BC4305FA03FC4CEA04049A
:1011000091F803C0BCF1280F06D14FF0010C0CFA86
:1011100000FCC2F814C00AE091F803C0BCF1480F0B
:1011200005D14FF0010C0CFA00FCC2F810C0401CB5
:101130000828D1D31460B1F800C0BCF1FF0F34DD32
:10114000546800202EE000F1080C4FF0010808FA66
:101150000CF3B1F800C00CEA03069E4221D18300D3
:101160004FF00F0C0CFA03F7BC4305FA03FC4CEAF2
:10117000040491F803C0BCF1280F05D100F1080C5C
:1011800008FA0CF8C2F8148091F803C0BCF1480FBB
:1011900007D100F1080C4FF0010808FA0CF8C2F86A
:1011A0001080401C0828CED35460BDE8F0814FF673
:1011B000FF710180022181700421C17070470246D5
:1011C0009068084008B1012070470020FCE7014604
:1011D000886880B2704702460020D3680B400BB18C
:1011E000012000E0002070470146C86880B27047C7
:1011F0000AB1016100E041617047C16070474FF47E
:1012000080320A43826181618261826982697047AA
:1012100002460020334B18684FF68073184040EAAE
:10122000021008432F4B186070472F49C861704760
:10123000F0B50A460023002400210025294E7168DC
:10124000C0F3034583B200F44016B6F5401F08D141
:1012500021F07061234E766826F07066214F7E6023
:1012600012E000F48016B6F5801F06D1032606FAB8
:1012700005F4A14341F0706106E0460D360103FA22
:1012800006F6B14341F0706122B1460D360103FA12
:1012900006F63143134E7160F0BD30B500228B0766
:1012A0001C0F0F2303FA04F20E4B08338C1053F873
:1012B000243093430B4C08348D1044F825302346DA
:1012C0008C1053F824308C07240F00FA04F42343C5
:1012D000044C08348D1044F8253030BD0014014012
:1012E00000F8FEBF000001400000204210B5044697
:1012F000F748844209D10121480500F08CFB002108
:101300004FF4001000F087FB08E00121880500F091
:1013100082FB00214FF4800000F07DFB10BD2DE921
:10132000F04385B004460D460026B1460427DFF899
:10133000A483A6884FF6C0700640684600F0D7FA2E
:10134000DDF80880E448B8FBF0F01FFA80F946EABF
:101350000906A68020884FF6FE71084020800026EE
:10136000DE49286888420CD828684000B8FBF0F0B5
:1013700087B2042F00DA04273E4309F101002084DC
:1013800027E0E8884BF6FF71884206D1286800EB19
:101390004000B8FBF0F087B209E0286800EBC0011C
:1013A00001EB0010B8FBF0F087B247F48047C7F3B9
:1013B0000B0008B947F0010747F4004006434FF41B
:1013C000967009FB00F04FF47A7190FBF1F0401C2D
:1013D0002084A683208840F00100208026884FF6D4
:1013E000F5300640A8886989084306432680A88905
:1013F00029890843208105B0BDE8F08341F2883196
:101400000160002181804BF6FF71C18000210181C4
:1014100041814FF480418181704721B1028842F0BF
:101420000102028004E002884FF6FE731A40028037
:10143000704721B1828842F40062828004E0828891
:101440004FF2FF731A408280704721B1828842F4C4
:101450008052828004E082884EF6FF731A408280B8
:10146000704721B1028842F48072028004E0028851
:101470004FF6FF631A400280704721B1028842F4A0
:101480000072028004E002884FF6FF531A40028087
:10149000704721B1028842F48062028004E0028831
:1014A0004FF6FF331A40028070470A4600218189B7
:1014B0004FF60173194002F0FE0319438181704712
:1014C00021B1828942F00102828104E082894FF6D3
:1014D000FE731A408281704721B1028842F04002B7
:1014E000028004E002884FF6BF731A400280704702
:1014F0001AB183880B43838002E083888B43838007
:101500007047018270470146088AC0B2704712B125
:1015100041F0010102E04FF6FE731940018270476D
:1015200008B5024600200090009200980844009000
:101530000098008808BD21B1028842F40042028070
:1015400003E00288C2F30E0202807047B1F5006F1B
:1015500004D1028842F40062028004E002884FF263
:10156000FF731A4002807047B1F5005F04D1028812
:1015700042F40052028004E002884DF6FF731A40E4
:101580000280704721B1028842F48052028004E058
:1015900002884EF6FF731A4002807047B1F5006F63
:1015A00004D1028842F40062028004E002884FF213
:1015B000FF731A400280704721B1028842F0200276
:1015C000028004E002884FF6DF731A400280704701
:1015D0000146088B0012704721B1028842F01002C8
:1015E000028004E002884FF6EF731A4002807047D1
:1015F00021B9028842F08002028004E002884FF69E
:101600007F731A4002807047B1F5804F05D0828BFE
:101610004BF6FF731A40828303E0828B42F48042D0
:101620008283704770B50246002400250023002005
:10163000958A138B1B0445EA030626F07F4404EACF
:1016400001068E4201D1012000E0002070BD10B5DE
:1016500001460020002300228B8A0A8B120443EAF1
:10166000020424F07F4010BD0CB502460020002388
:101670000193009300920B0F019321F07F41019B96
:101680001BB1009B1433009303E0090C009B18333B
:101690000093009B1B680B400BB1012000E0002071
:1016A0000CBD002221F07F42D3438382704730B5C6
:1016B000024600200023948801F0E06504EA154307
:1016C00021F07F41948A0C4054B14BB1012008E0D5
:1016D0000054004000127A0040420F00A086010032
:1016E000002030BD002221F07F42D3438382704727
:1016F000DE48006840F00100DC49086008464068A8
:10170000DB490840D949486008460068D949084083
:10171000D64908600846006820F480200860084622
:10172000406820F4FE004860002088607047CF4980
:10173000096821F48031CD4A11601146096821F40D
:1017400080211160B0F5803F03D0B0F5802F0ED11D
:1017500006E0C649096841F48031C44A116007E0D7
:10176000C249096841F4A021C04A116000E000BFED
:1017700000BF704710B501460022002300204A1127
:10178000012A02D1B94C236806E0022A02D1B74CE3
:10179000236A01E0B54C636A01F01F020124944002
:1017A0001C400CB1012000E0002010BD38B5002025
:1017B00000900024002500BF3120FFF7DBFF054625
:1017C0000098401C00901DB90098B0F5A06FF3D1AF
:1017D0003120FFF7CFFF08B1012400E000242046AC
:1017E00038BD01460020A14A106820F0F80040EA08
:1017F000C10010607047A049086070470246002091
:101800009A4B586820F47C1042EA01031843974B26
:101810005860704798490866704701460020934A0F
:10182000506820F003000843506070478F484068BC
:1018300000F00C007047014600208C4A506820F0F0
:10184000F00008435060704701460020874A506806
:1018500020F4E06008435060704701460020834A4E
:10186000506820F4605040EAC1005060704729B1D0
:101870007E4A527A02437D4B5A7204E07B4A527A86
:1018800082437A4B5A7270477B49D831086070475F
:1018900001460020754A506820F4404008435060DB
:1018A00070470021714A20321170704A82F820106E
:1018B000012802D004280AD104E001216B4A203219
:1018C000117005E00521694A2032117000E000BF67
:1018D00000BF70476949086070476449096A01435D
:1018E000624A11627047654944390860704730B5F3
:1018F00000210022002400235C4D6D6805F00C01DE
:1019000021B1042905D0082923D105E05C4D0560EB
:1019100022E05B4D05601FE0544D6D6805F47012C8
:10192000022505EB9242514D6D6805F480341CB9D7
:10193000544D554305600BE04C4D6D6805F4003582
:101940001DB1504D5543056002E04D4D55430560B6
:1019500002E04B4D056000BF00BF444D6D6805F0CF
:10196000F0010909484D6B5C0568DD4045603F4D5D
:101970006D6805F4E061090A434D6B5C4568DD4024
:1019800085603A4D6D6805F46051C90A3E4D6B5C47
:101990004568DD40C560354D6D6805F44041890BF3
:1019A0003A4D6B5CC568B5FBF3F5056130BD29B1F7
:1019B0002E4A526902432D4B5A6104E02B4A526968
:1019C00082432A4B5A61704729B1284A92690243DF
:1019D000264B9A6104E0254A92698243234B9A611F
:1019E000704729B1214AD2690243204BDA6104E0F1
:1019F0001E4AD26982431D4BDA61704729B11B4AE6
:101A0000D2680243194BDA6004E0184AD268824374
:101A1000164BDA60704729B1144A12690243134B1E
:101A20001A6104E0114A12698243104B1A6170472F
:101A300012494039086070470F49C86470470B4924
:101A4000C87170470948406A40F080700749486291
:101A5000704701460020054A92680A400AB10120F9
:101A600000E0002070470149887270470010024072
:101A70000000FFF8FFFFF6FE0000424280044242F1
:101A800000127A0000093D0014000020240000200C
:101A900010B50446F749601A8C4245D00CDCB4F10D
:101AA000804F1DD0F448204418B3B0F5806F29D082
:101AB000B0F5006F54D12EE0B0F5806F3DD0B0F599
:101AC0008E3F03D0B0F5923F4AD13FE00121C802DA
:101AD000FFF794FF00214FF40060FFF78FFF40E015
:101AE00001210846FFF797FF00210120FFF793FF30
:101AF00037E001210220FFF78EFF00210220FFF7CF
:101B00008AFF2EE001210420FFF785FF0021042039
:101B1000FFF781FF25E001210820FFF77CFF00216E
:101B20000820FFF778FF1CE001211020FFF773FF6A
:101B300000211020FFF76FFF13E001212020FFF7A5
:101B40006AFF00212020FFF766FF0AE00121480319
:101B5000FFF754FF00214FF40050FFF74FFF00E064
:101B600000BF00BF10BD028802F08F020280CA8849
:101B70004B881A4303881A4302808A8882850A8820
:101B80000285BE4A904202D0BD4A904201D10A7AF3
:101B9000028601228282704770B500240022002351
:101BA000058C4FF6FE7635400584028C8388048BC5
:101BB0004FF68F752C400D882C43751E2A400D89D9
:101BC0002A434D882A43CD888586AC4DA84202D051
:101BD000AB4DA84213D14FF6F7752A404D892A43E1
:101BE0004FF6FB752A408D882A4347F6FF652B4048
:101BF00047F6FF552B408D892B43CD892B4383809E
:101C00000483028470BD70B5002400220023058C7B
:101C10004FF6EF7635400584028C8388048B48F6B6
:101C2000FF752C400D884FF6FF7606EA05252C43FC
:101C30004FF6DF752A400D8906EA05152A434D88BF
:101C400006EA05152A43CD8805878C4DA84202D0A7
:101C50008B4DA8421DD14FF67F752A404D894FF616
:101C6000FF7606EA05152A434FF6BF752A408D8890
:101C700006EA05152A4347F6FF352B4047F2FF7564
:101C80002B408D8906EA85052B43CD8906EA85051B
:101C90002B4383800483028470BD70B5002400222E
:101CA0000023058C4FF6FF6635400584028C83883F
:101CB000848B4FF68F752C400D882C434FF6FF55C3
:101CC0002A400D894FF6FF7606EA05252A434D88FE
:101CD00006EA05252A43CD888587684DA84202D0AB
:101CE000674DA8421DD14FF2FF752A404D894FF62E
:101CF000FF7606EA05252A434FF6FF352A408D88F0
:101D000006EA05252A4346F6FF752B4045F6FF7582
:101D10002B408D8906EA05152B43CD8906EA05156A
:101D20002B4383808483028470BD70B5002400221D
:101D30000023058C4EF6FF7635400584028C83889F
:101D4000848B48F6FF752C400D884FF6FF7606EA27
:101D500005252C434DF6FF752A400D8906EA053509
:101D60002A434D8806EA05352A43CD88A0F840501D
:101D7000424DA84202D0424DA84207D1C3F30D0301
:101D80008D894FF6FF7606EA85152B438380848381
:101D9000028470BD828B4FF2FF331A408283828BA4
:101DA0004FF6FF7303EA01231A4382837047F0B5AD
:101DB0000C461546002100220026078C4EF6FF7CBB
:101DC00007EA0C070784818B028C4FF6FF7707EA3E
:101DD000043640F6FF4739404FF6FF7707EA0527FC
:101DE0004FF6FF7C0CEA033C47EA0C0739434DF6FB
:101DF000FF773A4046F480573A4381830284F0BD2E
:101E0000828B4FF6F3731A408283828B0A4382835C
:101E10007047F0B50C461546002100220026078CBD
:101E20004FF6FF6C07EA0C070784818B028C4FF694
:101E3000FF7707EA04264FF60C7739404FF6FF7715
:101E400007EA03172F4339434FF6FF573A4046F44A
:101E500080773A4381830284F0BD028B4FF2FF33D7
:101E60001A400283028B4FF6FF7303EA01231A43E1
:101E7000028370470010004000FCFFBF002C0140AF
:101E800000340140F0B50C46154600210022002622
:101E9000078C4FF6EF7C07EA0C070784018B028C56
:101EA0004FF6FF7707EA041640F6FF4739404FF632
:101EB000FF7707EA033739434FF6FF7707EA05272D
:101EC00039434FF6DF773A4046F010073A43018333
:101ED0000284F0BD028B4FF6F3731A400283028B2B
:101EE0000A4302837047F0B50C46154600210022D4
:101EF000068C4FF6FE773E400684018B028C4FF62F
:101F00000C7631407E1C06EA03162E4331437E1EBA
:101F1000324044F00106324301830284F0BD70B5C3
:101F200005460C46208850B92389A2886188284636
:101F3000FFF7D9FFE1882846FFF7CCFF25E020888E
:101F400004280AD12389A28861882846FFF79AFFCE
:101F5000E1882846FFF781FF17E0208808280AD18A
:101F60002389A28861882846FFF753FFE188284625
:101F7000FFF746FF09E02389A28861882846FFF71A
:101F800016FFE1882846FFF705FF70BD2DE9F041F7
:101F900005460C4600260127608808B9022600E0A5
:101FA0000026A088012801D1022700E0012720880F
:101FB000A0B92389A28861882846FFF794FFE188A9
:101FC0002846FFF787FF23893A4631462846FFF720
:101FD00059FFE1882846FFF740FF13E02389A288D4
:101FE00061882846FFF74EFFE1882846FFF735FF56
:101FF00023893A4631462846FFF775FFE18828468F
:10200000FFF768FFBDE8F0810A884B881A438B8888
:102010001A43CB881A430B891A434B891A438B897D
:102020001A43A0F8442070474FF6FF7181800021C9
:102030000180C18041800172704700210180418090
:102040008180C180018141818181C18170470021EE
:1020500001804180012181800021C1800181704780
:102060000021018041808180C18001814181818185
:10207000704721B1028842F00102028004E0028828
:1020800040F2FE331A400280704731B1B0F844206C
:1020900042F40042A0F8442005E0B0F84420C2F326
:1020A0000E02A0F8442070471AB183890B43838144
:1020B00002E083898B43838170478182704741EAC4
:1020C0000203A0F8483070471AB183890B4383811B
:1020D00002E083898B438381704701894FF6F87250
:1020E0001140018170470A46002101894FF68F7324
:1020F000194011430181704730B504460D46294609
:102100002046FFF7F0FF208940F00700208130BD16
:102110002DE9F04104460D4616461F46602D06D1B6
:102120003B46012231462046FFF7ACFE05E03B4628
:10213000012231462046FFF7D6FE29462046FFF70A
:10214000D2FF208940F007002081BDE8F08170B502
:102150000C4600210189C9B244EA02054FF6FF7618
:1021600006EA032635432943018170BD2DE9F0417C
:1021700005460E4617469846002443463A463146E1
:102180002846FFF7E4FF2C894FF6F870044044F02E
:1021900007044FF68F70044044F070042C81BDE8B2
:1021A000F081F0B504460D4616461F463B463246C2
:1021B00029462046FFF7CBFF208940F4804020814C
:1021C000F0BD0185828270470A460021018840F2F5
:1021D0008F331940114301807047F0B50C46154606
:1021E0001E460021002200230189028B038C4FF63A
:1021F000F877394021434FF6FC473A4040F2011747
:102200003A434FF6DD773B404FF6FF7707EA061774
:102210002F433B43018102830384F0BD0A46002122
:10222000018B4FF68F7319401143018370470A46A3
:102230000021018B48F6FF7319404FF6FF7303EA44
:1022400002231943018370470A460021818B4FF610
:102250008F7319401143818370470A460021818B97
:1022600048F6FF7319404FF6FF7303EA0223194340
:102270008183704721B1028842F08002028004E02D
:10228000028840F27F331A400280704721B1828871
:1022900042F00402828004E082884FF6FB731A4009
:1022A0008280704721B1828842F00802828004E077
:1022B00082884FF6F7731A408280704721B1828876
:1022C00042F00102828004E082884FF6FE731A40D9
:1022D000828070470A460021018B4FF6F773194040
:1022E0001143018370470A460021018B4FF2FF73AF
:1022F00019404FF6FF7303EA022319430183704725
:102300000A460021818B4FF6F773194011438183F0
:1023100070470A460021818B4FF2FF7319404FF638
:10232000FF7303EA02231943818370470A460021A1
:10233000018B4FF6FB7319401143018370470A4626
:102340000021018B4FF6FF3319404FF6FF7303EA6C
:1023500002231943018370470A460021818B4FF6FF
:10236000FB7319401143818370470A460021818B1A
:102370004FF6FF3319404FF6FF7303EA0223194368
:10238000818370470A460021018B4FF67F73194005
:102390001143018370470A460021018BC1F30E01EE
:1023A0004FF6FF7303EA02231943018370470A467D
:1023B0000021818B4FF67F73194011438183704751
:1023C0000A460021818BC1F30E014FF6FF7303EA29
:1023D00002231943818370470A460021018C4FF67E
:1023E000FD7319401143018470470A460021018C96
:1023F0004FF6F77319401143018470470A460021D4
:10240000018C4FF6DF7319404FF6FF7303EA021396
:102410001943018470470A460021018C4FF67F73EF
:1024200019404FF6FF7303EA021319430184704702
:102430000A460021018C4FF6FF5319404FF6FF73F7
:1024400003EA02231943018470470A460021018CE4
:102450004FF2FF7319404FF6FF7303EA022319434B
:10246000018470470A460021018C4DF6FF73194024
:102470004FF6FF7303EA023319430184704710B526
:10248000038C01248C40A3430384038C02FA01F4DF
:10249000A4B22343038410BD10B5038C04248C40E4
:1024A000A3430384038C02FA01F4A4B223430384FC
:1024B00010BD30B5038C01248C40A343038409B1C3
:1024C000082918D100F1180303EB61031B684FF6CC
:1024D0008F74234000F1180404EB6104236000F1C1
:1024E000180303EB61031B68134300F1180404EBAA
:1024F000610423601FE00B1FC3F34E0400F11803B7
:102500001B5948F6FF7423400C1FC4F34E0500F11D
:10251000180463510B1FC3F34E0400F118031B5939
:102520004FF6FF7404EA022423430C1FC4F34E0544
:1025300000F11804635130BD21B1028842F002025B
:10254000028004E0028840F2FD331A4002807047A6
:1025500021B1028842F00402028004E0028840F2C5
:10256000FB331A400280704721B1828842F080021A
:10257000828004E082884FF67F731A408280704721
:10258000028840F2F7331A40028002880A43028030
:10259000704782884FF68F731A40828082880A4380
:1025A0008280704702894FF6F8731A4002810289CF
:1025B0000A430281704702894FF67F731A400281F5
:1025C00002890A4302817047818470478185704780
:1025D000818670470187704781877047A0F8401057
:1025E00070470288D2B2028002880A430280704794
:1025F0000146888E70470146088F70470146888FD4
:1026000070470146B1F8400070470146888C70471A
:102610000146088D704702460020138A0B400BB11B
:10262000012000E000207047CA430282704730B5A5
:102630000246002000230024158A05EA010395893B
:1026400005EA010413B10CB1012000E0002030BD07
:10265000CA4302827047000010B50446D749601A89
:102660008C422BD006DCD648204498B1B0F5806F60
:1026700038D119E0B0F5806F2AD0B0F56C4F31D168
:1026800001218803FFF7BAF900214FF48040FFF7DA
:10269000B5F928E001214804FFF7BDF900214FF406
:1026A0000030FFF7B8F91EE001218804FFF7B3F905
:1026B00000214FF48020FFF7AEF914E00121C80497
:1026C000FFF7A9F900214FF40020FFF7A4F90AE071
:1026D00001210805FFF79FF900214FF48010FFF753
:1026E0009AF900E000BF00BF10BD2DE9F04786B0A9
:1026F00005460E460024A24600BF00BF00272F4615
:102700002C8A4CF6FF700440F08804432C82AC897C
:102710004EF6F3100440B0883189084371890843AC
:102720000443AC81AC8A4FF6FF400440B0890443B7
:10273000AC8201A8FFF7DBF8A248874202D1DDF89E
:1027400010A001E0DDF80CA00AEBCA0000EB0A10B3
:1027500031688900B0FBF1F86420B8FBF0F00401A7
:102760002009642101FB1089322000EB0910B0FB25
:10277000F1F000F00F0004432C8106B0BDE8F087B3
:102780004FF41651016000218180C18001810C212C
:10279000418100218181704710B502460020108AD6
:1027A0004FF2FF0318400B884C8823438C88234347
:1027B000CC8823431843108210BD00210180418042
:1027C0008180C180704721B1828942F400528281A8
:1027D00004E082894DF6FF731A4082817047F0B59C
:1027E000034600240026002500201846C1F34214A9
:1027F00001F01F06012707FA06F5012C01D10C3064
:1028000004E0022C01D1103000E014301AB1076846
:102810002F43076002E00768AF430760F0BD1AB1BD
:10282000838A0B43838202E0838A8B4383827047CF
:10283000028A4FF6F0731A400282028A0A43028229
:10284000704782894FF2FF731A40828182890A435E
:102850008281704721B1828942F00202828104E0C4
:1028600082894FF6FD731A4082817047028A4FF6C3
:10287000DF731A400282028A0A430282704721B142
:10288000028A42F48042028204E0028A4BF6FF731D
:102890001A4002827047C1F30802828070470146E5
:1028A0008888C0F308007047818941F00101818167
:1028B0007047028BD2B20283028B42EA012202836A
:1028C0007047028B02F47F420283028B0A43028329
:1028D000704721B1828A42F02002828204E0828A1B
:1028E0004FF6DF731A408282704721B1828A42F02C
:1028F0001002828204E0828A4FF6EF731A408282CD
:10290000704721B1828A42F00802828204E0828A02
:102910004FF6F7731A4082827047828A4FF6FB7334
:102920001A408282828A0A438282704721B1828A57
:1029300042F00202828204E0828A4FF6FD731A405E
:10294000828270470246002013880B400BB10120A1
:1029500000E000207047CA430280704770B502460D
:102960000B460024002100250020C3F3421503F08C
:102970001F01012606FA01F1012D02D1968931408D
:1029800006E0022D02D1168A314001E0968A3140DC
:102990001C12012606FA04F41688344011B10CB159
:1029A000012000E0002070BD10B5002200230A12B3
:1029B00001249440A3B2DC43048010BD004C0040CD
:1029C00000BCFFBF0038014033480068401C32495A
:1029D000086032480068401C3049086070472F4941
:1029E00009684160704701462C4A48681268904265
:1029F00008D92A4A48681268801A4FF6FF72101ADE
:102A0000C86004E0254A48681268101AC860D1E915
:102A10000220904204D3214800684860012070479A
:102A20000020FCE700201C49086070471A4909682B
:102A30001B4A1160114609681A4A1268914203D96B
:102A400017490968174A1160704770B504460D466A
:102A5000A068284020B1294620460AF088F803E003
:102A6000294620460AF085F870BD08B54FF480402D
:102A7000ADF8000003208DF8020010208DF803004F
:102A800069460948FEF708FB08BD10B54FF48041C0
:102A90000548FFF7DAFF10BD3400002030000020A9
:102AA000280000202C00002000100140F0B5044652
:102AB000DDE905561088002805DD20880F88B8421A
:102AC00001D10020F0BD1088401C108030780F88A4
:102AD000D8550888401C90FBF5F705FB17000880C7
:102AE0000120EFE7F0B50446DDE90556108880B116
:102AF00072B61088401E10802088185C30702088C4
:102B0000401C90FBF5F705FB1700208062B6012002
:102B1000F0BD0020FCE710B500230B600C680355E6
:102B200010BD30B50446086890420ADA18780D687E
:102B300060550868401C086000200D686055012041
:102B400030BD0020FCE730B50446086800280ADDE7
:102B50000868401E08600868205C187000200D6836
:102B60006055012030BD0020FCE70146088880B296
:102B70007047000010B5038DF84C54F82330184707
:102B800001650123038510BD036D0BB9C36C03659B
:102B900002230385F7E7036D23B90023436407236A
:102BA000038501E003230385EDE7036D1B78934262
:102BB00003D1036D5B1C036501E004230385E2E799
:102BC000036D1B7823B9002343640723038503E0C7
:102BD000036D836405230385D5E7036D1B783BB143
:102BE000036D1B78934203D0036D5B1C036501E00A
:102BF00006230385C7E7036D1B78934206D10023A4
:102C0000046D2370036D5B1CC36401E00023C36487
:102C1000836C436407230385B5E70023038500BF66
:102C2000B1E710B5038DCE4C54F82330184700237C
:102C30004360816442640123038510BD4468436C92
:102C40001B5D03724468836C1B5D4372037A3BB166
:102C5000037A447AA34203D143685B1C436001E0DA
:102C600002230385E9E7037A447A1B1B03600323ED
:102C70000385E2E70023038500BFDEE710B5038D7F
:102C8000B84C54F82330184781644264012303850B
:102C900010BD836C1B7853B1836C1B78446C23701C
:102CA000436C5B1C4364836C5B1C836404E0002303
:102CB000446C237002230385EAE70023038500BFE9
:102CC000E6E70FB470B504466020005BA64951F8F2
:102CD0002000004706A860630021A164E163012190
:102CE0006020015370BC5DF814FBA06C0599085C72
:102CF00018B102216020015309E0002104F1AC0069
:102D0000E26B8154E06BA0633B2160200153E9E753
:102D1000A06C0599085C252808D1A06C401CA06413
:102D20000020E0600421602001530CE0A06C0599B4
:102D3000095C04F1AC00E26B8154E06B401CE06381
:102D4000032160200153CDE7A06C401CA064012149
:102D500060200153C6E7A06C0599085C302808DBA9
:102D6000A06C0599085C392803DC0521602001531B
:102D700004E004202061062160200153B2E7A06C2A
:102D80000599085C3038E16801EB810100EB4100F6
:102D9000E060A06C401CA064042160200153A1E706
:102DA000A06C0599085C2E2808D1A06C401CA0647A
:102DB0000020206107216020015302E008216020EB
:102DC00001538FE7A06C0599085C302812DBA06CDA
:102DD0000599085C39280DDCA06C0599085C303831
:102DE000216901EB810100EB41002061A06C401CD6
:102DF000A06402E008216020015373E7A06C0599EC
:102E0000085C25280BD1252104F1AC00E26B81542C
:102E1000E06B401CE06303216020015302E00921C4
:102E2000602001535EE7A06C0599085C2070207853
:102E3000632803D10D216020015309E02078732815
:102E400003D110216020015302E00B2160200153C7
:102E500048E7A06C0599095C04F1AC00E26B815471
:102E6000E06B401CE0630321602001533AE7A06C53
:102E70000599085C20702078642803D11421602013
:102E8000015309E02078782803D1192160200153EB
:102E900002E00C216020015324E7A06C0599085C36
:102EA00020702078662803D121216020015302E0A0
:102EB0000A216020015315E7616B081D60630878E3
:102EC0002070E068401EA06000214C2001530E21BC
:102ED0005E2001530F216020015303E7217804F1A4
:102EE000AC00E26B8154E06B401CE0630321602086
:102EF0000153F7E64C20005BA16888420EDA2021DE
:102F000004F1AC00E26B8154E06B401CE0634C20A8
:102F1000005B401C81B24C20015306E000214C2094
:102F200001535E20015B60200153DBE6616B081DED
:102F300060630868606000214C200153112160200B
:102F40000153CFE64C20005B6168085C70B14C20F7
:102F5000005B401C81B24C2001530AE03C00002081
:102F60005C0000206C00002078000020132160200D
:102F70000153B7E64C20005B6168085C88B14C20C7
:102F8000005B6168095C04F1AC00E26B8154E06BAA
:102F9000401CE0634C20005B401C81B24C2001537C
:102FA00002E00321602001539CE64C20005BE168B5
:102FB000081AA06000214C20015312215E20015309
:102FC0000F21602001538DE6616B081D6063086866
:102FD000606100214C2001536069002802DA6069B9
:102FE000404200E06069606215216020015379E68B
:102FF000606A58B10A21606A90FBF1F060624C206F
:10300000005B401C81B24C2001530EE04C20005B61
:10301000E168081A6169002901DC012100E0002152
:10302000401AA0601621602001535BE600214C206D
:10303000015317215E2001530F216020015351E6F7
:1030400018215E2001533421602001534AE60321F8
:103050006020015346E6616B081D60630868A0614B
:1030600000214C200153A06920621A2160200153E5
:1030700038E6206A000920624C20005B401C81B2C7
:103080004C200153206A10B91B216020015329E60E
:103090004C20005BE168081AA06000214C2001531D
:1030A0001D215E2001531C21602001531AE64C2093
:1030B000005BA16888420EDA302104F1AC00E26BBB
:1030C0008154E06B401CE0634C20005B401C81B2EB
:1030D0004C20015306E000214C2001535E20015B8F
:1030E00060200153FEE500214C200153A06970B916
:1030F00030214C20025B005B401C83B24C20035308
:1031000004F17C0081541E216020015302E01F2144
:1031100060200153E6E54C20005B00280FDD4C20C9
:10312000005B401E81B24C20015304F17C00415CE5
:103130003030E26B8154E06B401CE06302E003211D
:1031400060200153CEE5A06938B1207E00F00F0069
:10315000606220216020015302E01E2160200153A3
:10316000C0E5606A0A280EDA94F824003030C1B253
:103170004C20025B005B401C83B24C20035304F1E3
:103180007C0081540DE094F824003730C1B24C200B
:10319000025B005B401C83B24C20035304F17C00B3
:1031A0008154A0690009A0611F216020015399E5A5
:1031B000606BC01D20F00700054608306063D5E94C
:1031C0000021104609F037FCE06122216020015304
:1031D00088E500214E200153E06909F049FC03D243
:1031E00023216020015302E024216020015379E56E
:1031F00001214E200153E06980F00040E06124216C
:10320000602001536EE500214C200153E06909F074
:10321000F9FB606227216020015363E5EB49E06917
:1032200009F0BEFBA0622821602001535AE5A06A84
:1032300009F0E8FB616A01EB4102C2EBC111A0EBAE
:10324000C100E0620020206329216020015349E58C
:10325000E06A88B10A21E06A90FBF1F201FB1200FA
:10326000216B01EB810100EB410020630A21E06A40
:1032700090FBF1F0E06204E0206BE0622A21602024
:1032800001532FE5606A58B10A21606A90FBF1F0A2
:1032900060624C20005B401C81B24C2001530FE067
:1032A0004C20005BE168091A4E20005B081A401EA2
:1032B000A0602169A068401AA0602B216020015302
:1032C00010E500214C2001532C215E2001530F21D9
:1032D0006020015306E54E20005B012806D12D2217
:1032E000E36B581CE06304F1AC00C2542D21602054
:1032F0000153F7E4E06909F085FB60612E215E204F
:103300000153342160200153ECE42E22E36B581C5E
:10331000E06304F1AC00C25400214C2001532F2182
:1033200060200153DEE44C20005B2169884203DA0F
:1033300030216020015302E0032160200153D1E4D9
:103340000A21E06A90FBF1F201FB12006062312178
:1033500060200153C6E494F824003030C2B2E36B1D
:10336000581CE06304F1AC00C254322160200153C8
:10337000B8E40A21E06A90FBF1F0E06233216020BA
:103380000153AFE44C20005B401C81B24C20015340
:103390002F2160200153A5E400214C2001534E2031
:1033A0000153606960623521602001539AE4606ACC
:1033B00070B930214C20025B005B401C83B24C2072
:1033C000035304F17C00815436216020015302E054
:1033D00038216020015385E44E20005B012807D18D
:1033E0002D2104F1AC00E26B8154E06B401CE063E2
:1033F0004C20005BA06337216020015372E44C2015
:10340000005B00280FDD4C20005B401E81B24C2089
:10341000015304F17C00425CE36B581CE06304F14F
:10342000AC00C25407E0002104F1AC00E26B81540F
:103430003A216020015355E4606A002805DA012131
:103440004E200153606A404260623921602001537E
:1034500048E4606A002817DD0A21606A90FBF1F2F7
:1034600001FB12003030C1B24C20025B005B401CFB
:1034700083B24C20035304F17C0081540A21606A1A
:1034800090FBF1F0606202E036216020015329E4F4
:103490005E20015B6020015324E400206063002172
:1034A0006020015300BF1DE410B5028D484B53F856
:1034B000222010470A22C26400224260026001B149
:1034C00081640122028510BD08220283826C127879
:1034D000302A02D10222028501E003220285F2E7AE
:1034E000826C5278782A03D0826C5278582A05D19F
:1034F0001022C2644268921C42600CE0826C5278D6
:10350000622A03D0826C5278422A04D10222C26419
:103510004268921C426003220285D4E74368826CB1
:10352000D25C3AB14368826CD25C80F844200422B9
:10353000028501E008220285C5E790F84420302A80
:103540000ADB90F84420392A06DC90F84420303A0F
:1035500002720722028501E005220285B3E790F896
:103560004420412A0ADB90F84420462A06DC90F8E1
:103570004420373A02720722028501E006220285C2
:10358000A1E790F84420612A0ADB90F84420662ADB
:1035900006DC90F84420573A02720722028503E0C5
:1035A00005220283082202858DE7027AC46C036833
:1035B00003FB042202604268521C4260032202851F
:1035C00081E70022028500BF7DE7000000007A4409
:1035D0006801002010B5044604F2AC7009F0D0FA7E
:1035E000002807DD04F2AC72911E881E09F0C3FAB0
:1035F000012010BD0020FCE71CB50446B4F8A0046F
:10360000FA4951F820000047B4F89A04072803D17A
:103610000B21A4F8A01407E02046FFF7DBFF0128E8
:1036200002D10121A4F8A0141CBDF1A104F5417040
:10363000FFF747FBB4F864033B2808D10221A4F844
:103640009E143821A4F8A0140021C4F87C14EBE7E0
:1036500004F590604FF4836104F2AE739A1ECDE9D5
:103660000010911E881EFFF73DFA10B10321A4F847
:10367000A014D9E794F880040D2803D10421A4F8FC
:10368000A01424E094F8800420281DDB94F8800422
:10369000802819DC04F590604FF4007104F11203E6
:1036A0009A1ECDE90010911E881EFFF7FFF904F560
:1036B0009063402204F2FC4104F2BC40FFF731FA6F
:1036C0000221A4F8A01402E00221A4F8A014ABE7A0
:1036D00004F590604FF4836104F2AE739A1ECDE955
:1036E0000010911E881EFFF7FDF910B10521A4F806
:1036F000A01499E794F880040A280DD1D4F8FC04AA
:1037000018B90221A4F8A01410E00621A4F89E1410
:103710002921A4F8A01409E0402204F2FC4104F29B
:10372000BC40FFF7F8F90921A4F8A0147CE7B5A282
:1037300004F51A70D4F82814FFF773FA4FF42470C4
:10374000005B032802D10721A4F8A0146CE74022F3
:1037500004F2FC4104F2BC40FFF7DDF90821A4F8B3
:10376000A01461E7D4F8680218B10921A4F8A014E4
:1037700002E00A21A4F8A01456E7A3A104F54170C1
:10378000FFF79FFAB4F864033B2808D10121A4F89D
:103790009E143821A4F8A0140021C4F87C1443E737
:1037A000A3A104F54170FFF78CFAB4F864033B2839
:1037B00008D13521A4F89E143821A4F8A0140021C2
:1037C000C4F87C1430E704F590604FF4836104F290
:1037D000AE739A1ECDE90010911E881EFFF782F984
:1037E00018B1B4F88214A4F8A0141DE794F880046A
:1037F0001B2806D10D21A4F882140B21A4F8A014D3
:1038000005E00C21A4F882141E21A4F8A0140BE7F3
:1038100094F880045B2806D10E21A4F882140B21B1
:10382000A4F8A01405E00C21A4F882141E21A4F829
:10383000A014F9E60C21A4F8821494F8800441281D
:1038400003D10F21A4F8A0141AE094F880044228B0
:1038500003D11021A4F8A01412E094F880044428A5
:1038600003D11821A4F8A0140AE094F88004432896
:1038700003D11921A4F8A01402E00B21A4F8A0148C
:10388000D2E640F21740005D012805D094F91A14E1
:1038900094F91C0481421CD0002140F217400155CC
:1038A00094F81414801E015594F91A0400EB0011C9
:1038B00004F5A06000EB810090F8400084F8140447
:1038C00040F21A40015D001F01551121A4F8A01417
:1038D00002E00B21A4F8A014A6E640F21740005D18
:1038E00018B994F91804022805DC94F91B1494F90A
:1038F000190481421CD0012140F21740015594F86F
:103900001414801E015594F91B0400EB001104F5FA
:10391000A06000EB810090F8400084F8140440F2AD
:103920001B40015D401F01551121A4F8A01402E0C5
:103930000B21A4F8A01477E694F9161401EB0112F8
:1039400004F5A06101EB820101F14000FFF70DF9E0
:10395000002803DD1221A4F8A01402E00B21A4F832
:10396000A01461E694F9160400EB001204F5A060BF
:1039700000EB820104F2BC4204F51A70FFF751F922
:103980004FF42470005B032802D11321A4F8A01483
:103990004AE6D4F8680218B11421A4F8A01402E091
:1039A0000B21A4F8A0143FE640F21540015DD4F8C5
:1039B000FC0481424EDA40F21540015D04F2BC4045
:1039C00008444FF4007104F112039A1ECDE900106F
:1039D000911E881EFFF76AF840F21540005D401CFA
:1039E000C1B240F21540015537E00000B80D00208B
:1039F0000D0A4C6F67696E2050617373776F726444
:103A00003A200000313233000D0A0D0A23232045ED
:103A100072726F723A2041757468656E7469636181
:103A200074696F6E206661696C7572650D0A0000BD
:103A30000D0A0D0A2323207368656C6C206C6F6778
:103A4000696E207375636365737366756C2E0D0AFA
:103A5000000000001521A4F8A014E5E50021C4F839
:103A60007C1404F59063402204F2FC4104F2BC4053
:103A7000FFF769F830B11521A4F89E143621A4F897
:103A8000A01402E01621A4F8A014CDE594F91604C0
:103A900000EB001104F5A06000EB8101D4F87C0478
:103AA000095C84F8811494F8810490B104F2814097
:103AB0004FF4007104F112039A1ECDE90010911E1B
:103AC000881EFEF7F3FFD4F87C14491CC4F87C145C
:103AD00005E01721A4F8A0140021C4F87C14A3E584
:103AE00094F9160400EB001104F5A06000EB8101CD
:103AF000D4F87C04095C84F8811494F8810470B1D2
:103B000004F28143402204F2FC4104F2BC40FFF77E
:103B100008F8D4F87C14491CC4F87C141AE094F911
:103B2000160409300A2190FBF1F201FB120041B2A8
:103B300040F21A40015594F91604401C0A2190FBEA
:103B4000F1F201FB120041B240F21B4001550B2182
:103B5000A4F8A01468E5082184F8811494F81404EA
:103B6000002810DD04F28140890104F112039A1E3D
:103B7000CDE90010911E881EFEF798FF94F81404FA
:103B8000401E84F814040B21A4F8A0144CE594F80A
:103B90001414D4F8FC04814214DA94F8141404F2D6
:103BA000BC4008444FF4007104F112039A1ECDE9A1
:103BB0000010911E881EFEF779FF94F81404401C33
:103BC00084F814040B21A4F8A0142DE594F88004C3
:103BD000082803D11A21A4F8A01416E094F8800450
:103BE0000D2803D11F21A4F8A0140EE094F880043E
:103BF000202807DB94F88004802803DC2521A4F822
:103C0000A01402E00B21A4F8A0140DE504F59060C7
:103C10004FF4836104F2AE739A1ECDE90010911E39
:103C2000881EFEF75FFF68B194F880040A2803D16C
:103C30002021A4F8A01405E0002084F81404372102
:103C4000A4F8A014F0E4012140F21740015500202F
:103C500084F8140494F9190409300A2190FBF1F254
:103C600001FB120041B240F21A40015504F2FC403F
:103C7000FEF77BFF002803DD2121A4F8A01402E059
:103C80003521A4F8A014CFE494F91A0400EB001134
:103C900004F5A06000EB810204F2BC4104F51A7047
:103CA000FEF7BFFF4FF42470005B032802D12221EE
:103CB000A4F8A014B8E4D4F86802D8B194F919248F
:103CC00002EB021304F5A06202EB830202F1400151
:103CD00094F9192402EB021304F5A06202EB8300AD
:103CE0004022FEF718FF0021C4F87C142321A4F819
:103CF000A01405E02F21A4F89E142921A4F8A014F3
:103D000092E494F9190400EB001204F5A06000EBB2
:103D10008200D4F8FC1401642421A4F89E143421F8
:103D2000A4F8A01480E440F21940015D401C015544
:103D300000BF94F91904401C0A2190FBF1F201FB29
:103D4000120041B240F219400155015D801C01553D
:103D500000BF94F918040A280BDA4FF48360005D61
:103D6000401C41B24FF4836001550921001D0155EB
:103D700004E040F21A40015D801C01552F21A4F897
:103D80009E142921A4F8A0144EE4D4F8FC043F2882
:103D900003D10B21A4F8A01409E094F81414D4F86A
:103DA000FC04411AC4F87C142621A4F8A0143BE4B6
:103DB000D4F87C04B0B194F81414D4F87C04014411
:103DC000491E04F2BC40415C94F81424D4F87C04ED
:103DD000024404F2BC408154D4F87C14491EC4F857
:103DE0007C1418E094F8801494F81424501C84F87F
:103DF000140404F2BC4081540022D4F8FC14491C81
:103E0000C4F8FC14425494F81414491EC4F87C14E9
:103E10002721A4F8A01407E4D4F87C14D4F8FC04F7
:103E2000814215D204F2BC40D4F87C1408444FF40B
:103E3000007104F112039A1ECDE90010911E881E34
:103E4000FEF734FED4F87C14491CC4F87C1409E055
:103E500094F81414D4F8FC04411AC4F87C142821F2
:103E6000A4F8A01405E4082184F88114D4F87C0493
:103E700088B104F28140890104F112039A1ECDE950
:103E80000010911E881EFEF711FED4F87C14491E06
:103E9000C4F87C1402E00B21A4F8A01417E494F8F1
:103EA000140400280BDDD4F8FC04002807DD94F886
:103EB0001414C4F87C141B21A4F8A01402E00B21F4
:103EC000A4F8A01415E4D4F87C14D4F8FC048142BE
:103ED0000CD204F2BC40D4F87C14425C491E42541B
:103EE000D4F87C14491CC4F87C1424E0D4F8FC14E5
:103EF000491EC4F8FC1494F81404401E84F81404F9
:103F0000002104F2BC40D4F8FC248154082184F838
:103F100081143B38890104F112039A1ECDE9001087
:103F2000911E881EFEF7C2FD94F81414C4F87C1488
:103F30001C21A4F8A01409E4D4F87C14D4F8FC04DF
:103F4000814215D204F2BC40D4F87C1408444FF4EA
:103F5000007104F112039A1ECDE90010911E881E13
:103F6000FEF7A4FDD4F87C14491CC4F87C1419E0B5
:103F7000202184F8811404F28140090104F1120324
:103F80009A1ECDE90010911E881EFEF78FFD1D219F
:103F9000A4F8A01494F81414D4F8FC04411A491C91
:103FA000C4F87C140EE4082184F88114D4F87C044D
:103FB00088B104F28140890104F112039A1ECDE90F
:103FC0000010911E881EFEF771FDD4F87C14491E66
:103FD000C4F87C1402E00B21A4F8A01405E400212D
:103FE000C4F8A8143A2204F2BC4104F50570FEF7A7
:103FF000C1FD4FF40F70005B072802D12A21A4F8FD
:10400000A01404E44FF41670005940B14FF4167038
:104010000159C4F8A8142B21A4F8A01409E0D4F87D
:10402000A80418B904F2BC41C4F8A8142C21A4F8BF
:10403000A01425E43A22002104F50570FEF79AFD4C
:104040004FF40F70005B072802D12A21A4F8A014B6
:1040500016E4002140F224400155202204F50570A9
:10406000D4F8A814FEF786FD4FF40F70005B072804
:1040700002D12D21A4F8A0142EE44FF4167000599B
:10408000D0B140F22440005D142815DA4FF41670C8
:10409000015940F22440025D04F5856040F8221089
:1040A00040F22440005D401CC1B240F22440015562
:1040B0002E21A4F8A01403E0B4F89E14A4F8A014D0
:1040C0000AE42022002104F50570FEF753FD4FF4A9
:1040D0000F70005B072802D12D21A4F8A0142AE458
:1040E0006168A1F10C004FF4846108513021A4F8FB
:1040F000A01420E40021C4F87C144FF4846000591B
:104100000C30211D884203D03221A4F8A0140AE00B
:1041100040F22440005D18B93521A4F8A01402E053
:104120003721A4F8A01406E4D4F8680218B939219C
:10413000A4F8A0140BE04FF484621259D168A1F1E5
:104140000C004FF4846108513021A4F8A01408E455
:104150004FF484600059026804F51A70D4F82814EA
:10416000FEF75FFD4FF42470005B032802D131217C
:10417000A4F8A0140CE400BF94F9190400EB00119A
:1041800004F5A06000EB810204F2BC4104F52D703F
:10419000FEF774FD4FF43770005B022802D1242132
:1041A000A4F8A01459E440F22441085D091F0959FC
:1041B0008A6804F5856190474FF48F6108513A2170
:1041C000A4F8A01449E44FF48F600059012806D1E7
:1041D0003521A4F8A0140021C4F87C1416E04FF493
:1041E0008F60005918B93921A4F8A0140EE04FF4DB
:1041F0008F6000590B2809D1402204F2FC4104F2DF
:10420000BC40FEF788FC3B21A4F8A01425E472A171
:1042100004F54170FEF755FDB4F864033B2808D15E
:104220000021A4F89E143821A4F8A0140021C4F899
:104230007C1412E472A275A104F54170FEF741FDF1
:10424000B4F864033B2808D13821A4F8A0143C2119
:10425000A4F89E140021C4F87C1416E46CA104F5A3
:104260004170FEF72EFDB4F864033B2805D13821D8
:10427000A4F8A0140021C4F87C1406E465A104F598
:104280004170FEF71EFDB4F864033B2808D13821C5
:10429000A4F8A0143521A4F89E140021C4F87C14BD
:1042A0001DE404F56C70D4F87C14405CA8B104F5EE
:1042B0006C70D4F87C1408444FF4007104F11203BC
:1042C0009A1ECDE90010911E881EFEF7EFFBD4F870
:1042D0007C14491CC4F87C1403E0B4F89E14A4F8C0
:1042E000A01437E4402204F2FC4104F2BC40FEF783
:1042F00012FC0B21A4F8A01400BF2BE41CB504464B
:104300004FF43F60005B4E4951F82000004704F62F
:10431000D1304FF4007104F112039A1ECDE9001060
:10432000911E881EFEF7DEFB18B101214FF43F609D
:1043300001531CBD80212068FEF704FB012803D136
:1043400002214FF43F600153F3E740F6D132115D93
:104350002068FEF7A0FA00214FF43F60015300BF30
:10436000E7E73EB5044620212068FEF7EBFA88B166
:104370002068FEF794FAC0B2029002A84FF483615D
:1043800004F2AE739A1ECDE90010911E881EFEF74E
:104390008DFB00BF3EBD3EB5044640F2255120686E
:1043A000FEF7DCFAB0B12068FEF779FAC0B20290ED
:1043B00002A84FF4836104F2AE739A1ECDE9001097
:1043C000911E881EFEF772FB40F225512068FEF711
:1043D000EBFA00BF3EBD0000201B5B481B5B4A237D
:1043E00023207368656C6C206C6F676F7574207325
:1043F00075636365737366756C2E0D0A00000000AB
:104400000D0A7368656C6C3A7E23200025730000EA
:10441000082008000D0A0D0A2323204572726F72CE
:104420003A20496E737420556E65787065637465C3
:104430006420657863657074696F6E0D0A00000012
:10444000AC0E00204A68486001604260106000BF06
:1044500070477CB504460D46FB48808DFB4951F8FA
:1044600020000047012C03D10121F748818502E09B
:104470000221F548818500207CBDF5A1F648FEF7B4
:1044800020FCF548B0F860003B2804D10321EE4839
:104490008185002181600020EEE7F0A1EE48FEF763
:1044A00010FCED48B0F860003B2804D10321E64839
:1044B0008185002181600020DEE7E3488168E648CD
:1044C000AC30405CA0B1E0488168E348AC300844BF
:1044D0004FF40071EC4B9A1ECDE90010911E881E1E
:1044E000FEF7E4FAD8488068401CD749886004E0A9
:1044F0000021D54881850120BEE70020BCE77CB5BE
:1045000004460D46D048808DE04951F82000004710
:10451000012C0AD1DC4A123A5168A1F10C00CA49B7
:1045200008600221C848818502E00121C6488185D2
:1045300000207CBDC9A1C848FEF7C3FBC648B0F83F
:1045400060003B2804D10521BF488185002181609E
:104550000020EEE7BC4800680C30CB490E39884299
:1045600005D00321B84881850021816004E0002145
:10457000B54881850120DCE70020DAE7B248006811
:104580004168B1488068085CA8B1AF4800684168DC
:10459000AD48806808444FF40071BB4B9A1ECDE9CA
:1045A0000010911E881EFEF781FAA7488068401C03
:1045B000A549886002E00421A34881850020B8E76E
:1045C000A14A1268D168A1F10C009F49086002213C
:1045D0009D4881850020ACE79B4881689E48AC30AF
:1045E000405CA0B1984881689B48AC3008444FF4C7
:1045F0000071A54B9A1ECDE90010911E881EFEF792
:1046000055FA91488068401C8F49886004E0002179
:104610008D48818501208CE700208AE77CB505461E
:104620000C468948808D9A4951F820000047032D97
:1046300003D101218448818502E00C2182488185D3
:1046400000207CBD93486168FEF72EFF9148008DE5
:10465000082802D102217C4881850020F1E78D489D
:10466000008B052803D10C217748818506E0894815
:10467000008881B274480182032181850020E0E72F
:104680007148008A38B984486F49C1F8580204213A
:104690006D48818502E00C216B4881850020D0E7C0
:1046A0007C48A168FEF700FF7A48008D082802D1F7
:1046B0000521654881850020C3E77648008B0528E1
:1046C00003D10C21604881850EE07248008881B2D8
:1046D0005D48C181C089042803DB0C215A488185CB
:1046E00002E00621584881850020AAE75648817BD0
:1046F0006948826E90470721534881850020A0E7D2
:10470000644803685048028A64A15348FEF7D9FA06
:1047100008214D488185002093E74F48B0F860009C
:104720003B2805D10B21484881850021816002E0AA
:10473000072145488185002083E7564803684248A1
:10474000028A5EA14448FEF7BCFA0A213E488185F0
:10475000002076E74048B0F860003B2805D10B21E7
:10476000394881850021816002E009213648818530
:10477000002066E7344881683748AC30405CA0B11F
:10478000314881683448AC3008444FF400713E4BE6
:104790009A1ECDE90010911E881EFEF787F92A485F
:1047A0008068401C2849886004E0002126488185F3
:1047B000012046E7002044E728A12748FEF781FAB8
:1047C0002548B0F860003B2804D10B211E488185A4
:1047D00000218160002034E77CB504460D461A486C
:1047E000808D3F4951F820000047012C06D13D48FB
:1047F00004F0EBFC05211448818502E003211248F6
:10480000818500207CBD374890F85100354991F8EA
:104810005010CDE90010334890F84F3090F84E20FA
:1048200031A10D48FEF74DFA02210748818500208D
:10483000E8E70948B0F860003B286AD10421024843
:1048400081850021816067E088310020B80E00205A
:10485000201B5B481B5B4A006C3400200D0A0D0ACC
:104860002323204572726F723A20496E737420556B
:104870006E657870656374656420657863657074CF
:10488000696F6E0D0A0000009E010020C80E002016
:10489000E00E00201C340020C81600200D0A23233F
:1048A000204C45442025642073657420746F204D8E
:1048B0006F64652025640D0A000000000D0A2323A3
:1048C000204572726F723A204C4544202564207353
:1048D000657420746F204D6F64652025640D0A0097
:1048E000140F00207C1A00200D0A23232068756D08
:1048F00069203D2025642E25642052482C207465B3
:104900006D70203D2025642E2564204300000000AA
:10491000FFE70121F8488185002073E7AFF2C40169
:10492000F648FEF7CEF9F548B0F860003B2804D110
:104930000421F148818500218160002062E7EE4872
:104940008168EE48AC30405CA0B1EB488168EB4830
:10495000AC3008444FF40071E94B9A1ECDE90010C9
:10496000911E881EFEF7A2F8E3488068401CE249C9
:10497000886002E00521E0488185002042E7E048A8
:104980001238FEF727FE012807D10021DA48818579
:10499000DC4804F01FFC012034E7DA4840780128A5
:1049A00005D10020D74948700621D34881850020D1
:1049B00028E70121D0488185002023E72DE9FC412B
:1049C00004468846CC48808DCF4951F820000047E6
:1049D000012C03D10121C848818502E00321C6488A
:1049E00081850020BDE8FC8164200090C7480368F1
:1049F000C748C8490268C148FEF763F9BF48B0F824
:104A000060003B2806D10421BB48818505214185F2
:104A1000002181600020E5E70021B7488185012061
:104A2000E0E7AFF2C811B548FEF74BF9B348B0F86C
:104A300060003B2806D10421AF48818502214185D1
:104A4000002181600020CDE7AB488168AB48AC30E5
:104A5000405CA0B1A8488168A848AC3008444FF435
:104A60000071A74B9A1ECDE90010911E881EFEF71B
:104A70001DF8A1488068401C9F49886002E09E485C
:104A8000418D81850020ADE708F008F9A0F580652B
:104A9000FBF73CFB064608F001F9074633463A4669
:104AA0009DA196480095FEF70CF99448B0F8600077
:104AB0003B2806D1042190488185022141850021AF
:104AC000816000208EE77CB504460D468A48808DC3
:104AD0009F4951F820000047022C07D10020864949
:104AE00081F8480001218448818502E00421824840
:104AF000818500207CBD97486968FEF7D5FC954804
:104B0000008D082802D102217B4881850020F1E731
:104B10009048008B052803D104217748818506E061
:104B20008C48008881B2744801820321818500206D
:104B3000E0E77148008A052803DA06216E4881857E
:104B400002E004216C4881850020D3E7AFF2F42114
:104B50006A48FEF7B6F86948B0F860003B2804D10F
:104B6000052165488185002181600020C2E76248F7
:104B700081686248AC30405CA0B15F4881685F48A2
:104B8000AC3008444FF400715D4B9A1ECDE9001023
:104B9000911E881EFDF78AFF57488068401C5649C1
:104BA000886004E00021544881850120A2E70020AC
:104BB000A0E75149087C05F065FB042802D10721D4
:104BC0004D488185002095E74B4A92F84810107CAB
:104BD00005F051FC08214848818500208AE74649B4
:104BE000087C05F066FB012802D109214248818535
:104BF00000207FE74049087C05F072FB3E49486091
:104C0000087C05F027FB3C48406818B90A213A485F
:104C100081850AE038484068402803D10F21364892
:104C2000818502E00B2134488185002062E732480B
:104C300090F8482048A13148FEF743F82F48B0F8D3
:104C400060003B2806D10D212B4841850C21818530
:104C50000021816000204DE7274890F8482047A1B7
:104C60002648FEF72EF82548B0F860003B2806D10C
:104C70000D21214841850C21818500218160002082
:104C800038E71D4881681D48AC30405CA0B11A4827
:104C900081681A48AC3008444FF40071184B9A1ED2
:104CA000CDE90010911E881EFDF700FF12488068B4
:104CB000401C1149886002E00F48418D8185002029
:104CC00018E70D4890F84800FF2803D10E210A4844
:104CD000818509E0084890F84800401C064981F8A1
:104CE0004800062104488185002003E7002102488E
:104CF00081850120FEE60000883100206C34002010
:104D00009E0100207C1A0020300F00202800002087
:104D10002C000020D4CC0008232320737461636B23
:104D2000203A20746F70203D2030782578207C2038
:104D3000637572203D2030782578207C20626F7466
:104D4000746F6D203D20307825782E0D0A0000000C
:104D5000480F00201C3400200D0A232320693263F1
:104D600064657465637420616464723D30782532D3
:104D700078206F6E6C696E65200000000D0A232399
:104D80002069326364657465637420616464723D94
:104D90003078253278206F66666C696E6500000099
:104DA000F1A1F848FDF78DFFF648B0F860003B2808
:104DB00006D10E21F44841850C21818500218160B6
:104DC000002097E67CB505460C46EF48808DEF49FC
:104DD00051F820000047032D03D10121EA488185C5
:104DE00002E01221E848818500207CBDE848616826
:104DF000FEF75AFBE648008D082802D10221E2485E
:104E000081850020F1E7E248008B052803D11221BB
:104E1000DD48818506E0DE48008881B2DA480182FB
:104E2000032181850020E0E7D748008A052803DABE
:104E30000421D548818502E01221D34881850020D4
:104E4000D3E70020D049A1F84A00D149A06888647E
:104E50000521CD4881850020C7E7CD48A168FEF730
:104E600023FBCB48008D082802D10621C648818546
:104E70000020BAE7C648008B052803D11221C2489A
:104E8000818507E0C2480078BF4981F848000721C2
:104E9000BD4881850020A8E7BB4890F84830028AC9
:104EA000BCA1B848FDF70DFFB648B0F860003B283C
:104EB00006D10921B44841850821818500218160FE
:104EC000002092E7B0488168AE48AC30405CA0B1A9
:104ED000AD488168AB48AC3008444FF40071BA4B20
:104EE0009A1ECDE90010911E881EFDF7DFFDA64831
:104EF0008068401CA449886002E0A348418D8185F8
:104F0000002072E7A049087C05F0BCF9042802D112
:104F10000A219D488185002067E701219A484D308C
:104F2000994BCDE90001B3F84A2093F84810187C5A
:104F3000012305F01DFA0B2193488185002054E7D9
:104F40009149087C05F0B5F9012802D10C218E4861
:104F50008185002049E78C49087C05F0C1F98A4920
:104F60004860087C05F076F98748406818B90D213B
:104F70008548818502E00E2183488185002034E741
:104F8000814890F84D30B0F84A2090A17D48FDF757
:104F900098FE7C48B0F860003B2806D10F217A4883
:104FA0004185082181850021816000201DE7764828
:104FB0004068102803D11321734881851AE0724894
:104FC0004068202803D114216F48818512E06E4883
:104FD0004068302803D115216B4881850AE06A4872
:104FE0004068402803D116216748818502E00F21DF
:104FF000654881850020F8E66348B0F84A00FF283C
:1050000003D11121604881850BE05F48B0F84A0068
:10501000401C5D49A1F84A0000215B484161102114
:1050200081850020E1E65848406928B1564840692A
:10503000401E5549486102E00921534881850020FE
:10504000D3E60021504881850120CEE6AFF2F4710D
:105050004C48FDF736FE4B48B0F860003B2806D1BF
:105060001121494841850821818500218160002066
:10507000BBE65FA14348FDF724FE4248B0F860005C
:105080003B2806D111214048418508218185002116
:1050900081600020A9E63C48B0F84A205CA139486C
:1050A000FDF70FFE3748B0F860003B2806D10F210E
:1050B000354841850821818500218160002094E6E2
:1050C0003148B0F84A205CA12E48FDF7FAFD2D4882
:1050D000B0F860003B2806D10F212B4841850821FC
:1050E00081850021816000207FE61FA12548FDF712
:1050F000E8FD2448B0F860003B2806D10F21224883
:105100004185082181850021816000206DE6FEB582
:1051100005460C461C48808D514951F82000004737
:10512000062D0BD11A486168FEF7BEF91848008DAC
:10513000082806D101211448818502E01721124870
:1051400081850020FEBD1248008B052803D1172160
:105150000D48818506E00E48008881B20A48018228
:10516000022181850020EDE70D0A2323204572727C
:105170006F723A2069326320627573206572726FB4
:10518000720D0A006C34002088310020880F002046
:105190001C3400200D0A23232069326364756D706E
:1051A0003A206275732564206465765F6164647279
:1051B0003D3078253278204C6F6164696E672E2E01
:1051C0002E0D0A0D0A0000009E01002023232069F5
:1051D000326364756D703A207265673D30782532B0
:1051E000782076616C3D30782532780D0A00000019
:1051F0000D0A2323204572726F723A204445565F90
:10520000414444525F4E4F5F41434B0D0A00000042
:105210000D0A2323204572726F723A207265673D32
:105220003078253278205245475F414444525F4EE2
:105230004F5F41434B0D0A000D0A23232045727234
:105240006F723A207265673D307825327820575268
:105250005F56414C55455F4E4F5F41434B0D0A0031
:10526000E40F0020FE48008A052803DA0321FC48E9
:10527000818502E01721FA488185002062E7F9481C
:10528000A168FEF711F9F748008D082802D1042122
:10529000F3488185002055E7F248008B052803D1AB
:1052A0001721EF48818507E0EE480078EC4981F846
:1052B00048000521EA488185002043E7E948E16884
:1052C000FEF7F2F8E748008D082802D10621E448ED
:1052D0008185002036E7E348008B052803D117219C
:1052E000DF48818507E0DF480088DD49A1F84A00F2
:1052F0000721DB488185002024E7DA482169FEF791
:10530000D3F8D848008D082802D10821D4488185D7
:10531000002017E7D348008B052803D11721D04878
:10532000818507E0CF480078CD4981F84C000921FC
:10533000CB488185002005E7CA486169FEF7B4F8CB
:10534000C848008D082802D10A21C548818500205F
:10535000F8E6C448008B052803D11721C048818591
:1053600007E0C0480088BE49A1F84E020B21BC48A6
:1053700081850020E6E6BA48B0F84E1290F84C005D
:10538000B74AB2F84A20CDE900200291B44890F81B
:105390004830028AB4A1C448FDF793FCC248B0F873
:1053A00060003B2806D10D21AD4841850C21818547
:1053B000002181600020C5E6A9488168BA48AC3068
:1053C000405CA0B1A6488168B748AC3008444FF4AF
:1053D0000071B64B9A1ECDE90010911E881EFDF794
:1053E00065FB9F488068401C9D49886002E09C489E
:1053F000418D81850020A5E69949087C04F042FF93
:10540000042802D10E219648818500209AE694480E
:10541000B0F84E0292494D31914ECDE9001096F808
:105420004C30B6F84A2096F84810307C04F0A0FFC3
:105430000F2130468185002084E68949087C04F0EC
:1054400038FF012802D1102185488185002079E6A6
:105450008349087C04F044FF81494860087C04F0DB
:10546000F9FE7F48406818B911217D48818502E026
:1054700018217B488185002064E68DA18A48FDF7CC
:1054800020FC8948B0F860003B2808D1002174480E
:105490004161132141851221818500218160002015
:1054A00050E66F4881688048AC30405CA0B16C48E1
:1054B00081687D48AC3008444FF400717B4B9A1EE4
:1054C000CDE90010911E881EFDF7F0FA644880684F
:1054D000401C6349886002E06148418D818500205D
:1054E00030E65F4840695E49B1F84E12884203D108
:1054F00016215B4881850BE05948007D00F00700CC
:1055000018B915215648818502E014215448818537
:10551000002017E6524841694D30425C68A162485C
:10552000FDF7CFFB6048B0F860003B280BD113219A
:105530004B484185122181854069401C484948619A
:105540000021474881600020FCE54548B0F84A103A
:1055500040690A185CA15448FDF7B3FB5248B0F803
:1055600060003B2806D114213D48418512218185E8
:10557000002181600020E5E5002139488185012076
:10558000E0E5AFF628514848FDF79BFB4648B0F8E8
:1055900060003B2806D116213148418512218185C2
:1055A000002181600020CDE52D484068102803D1FE
:1055B00019212B48818516E029484068202803D10D
:1055C0001A21274881850EE025484068302803D1FC
:1055D0001B212348818506E021484068402802D1EC
:1055E0001C211F4881850020ACE5AFF2FC312E481C
:1055F000FDF767FB2C48B0F860003B2806D1162168
:10560000174841851221818500218160002099E59C
:105610001348B0F84A20AFF208412348FDF751FB88
:105620002148B0F860003B2806D116210C4841857E
:105630001221818500218160002083E50848B0F8AF
:105640004A20AFF20C411848FDF73BFB1648B0F872
:1056500060003B2843D116210148418512213BE0DF
:10566000883100201C3400200D0A23232049326396
:105670006765743A206275732564206465763D30F1
:1056800078253278207265673D307825327820722F
:1056900065675F6C656E203D2025642072656164DE
:1056A0005F6C656E3D2564006C3400209E01002017
:1056B0000D0A206C6F6164696E672E2E2E0D0A0034
:1056C00030782532782000000D0A5B30782532785A
:1056D0005D2D3E20000000008185002181600020BA
:1056E00030E5AFF27C51F948FDF7EBFAF748B0F836
:1056F00060003B2806D11621F5484185122181859D
:105700000021816000201DE5FEB505460C46F048ED
:10571000808DF04951F820000047062D0CD1EE484D
:105720006168FDF7C1FEEC48008D082802D1012117
:10573000E74881850020FEBD1521E54881850020D0
:10574000F9E7E548008B052803D11521E04881855C
:1057500006E0E148008881B2DD48018202218185AE
:105760000020E8E7DA48008A052803DA0321D84850
:10577000818502E01521D64881850020DBE7D648E7
:10578000A168FDF791FED448008D082802D10421BC
:10579000CF4881850020CEE7CF48008B052803D174
:1057A0001521CB48818507E0CB480078C84981F8AE
:1057B00048000521C64881850020BCE7C648E1684D
:1057C000FDF772FEC448008D082802D10721C048A9
:1057D00081850020AFE7C048008B052803D1152143
:1057E000BB48818507E0BC480088B949A1F84A0058
:1057F0000821B748818500209DE7B7482169FDF75A
:1058000053FEB548008D082802D10921B048818592
:10581000002090E7B048008B052803D11521AC4843
:10582000818507E0AC480078A94981F84C000A213D
:10583000A748818500207EE7A7486169FDF734FE0F
:10584000A548008D082802D10B21A14881850020A0
:1058500071E7A148008B052803D115219C4881855B
:1058600007E09D4800789A4981F84D000C2198483E
:10587000818500205FE7964890F84D00944991F8A3
:105880004C10934AB2F84A20CDE90021029090488A
:1058900090F84830028A91498C48FDF712FA8B48FB
:1058A000B0F860003B2806D10E21894841850D21C2
:1058B00081850021816000203DE78548816883481B
:1058C000AC30405CA0B1824881688048AC3008446C
:1058D0004FF40071824B9A1ECDE90010911E881E74
:1058E000FDF7E4F87A488068401C7949886002E056
:1058F0007748418D818500201DE77549087C04F0BB
:10590000C1FC042802D10F2171488185002012E7D3
:1059100001216F484D306E4ECDE9000196F84C30B4
:10592000B6F84A2096F84810307C04F0F0FC1021BC
:10593000304681850020FEE66549087C04F0B9FC0C
:10594000012802D11121624881850020F3E66049D7
:10595000087C04F0C5FC5E494860087C04F07AFCD1
:105960005B48406818B912215948818502E0162128
:10597000574881850020DEE65AA15448FDF7A1F979
:105980005248B0F860003B2806D1142150484185A8
:1059900013218185002181600020CCE64C4881687C
:1059A0004A48AC30405CA0B1494881684748AC30B7
:1059B00008444FF400714A4B9A1ECDE90010911E25
:1059C000881EFDF773F842488068401C4049886093
:1059D00002E03F48418D81850020ACE600213C4833
:1059E00081850120A7E648493848FDF76AF937481C
:1059F000B0F860003B2806D11421354841851321B9
:105A0000818500218160002095E63148406810289A
:105A100003D117212E48818516E02D4840682028A3
:105A200003D118212A4881850EE029484068302892
:105A300003D119212648818506E025484068402881
:105A400002D11A2122488185002074E6AFF6600158
:105A50001E48FDF736F91D48B0F860003B2806D116
:105A600014211B484185132181850021816000207C
:105A700061E61748B0F84A20AFF66C011348FDF70D
:105A800020F91248B0F860003B2806D114211048D4
:105A90004185132181850021816000204BE60C485F
:105AA000B0F84A20AFF670010848FDF70AF9074838
:105AB000B0F860003B2806D1142105484185132128
:105AC000818500218160002035E600006C340020D3
:105AD00088310020581000201C3400201CCD000804
