:020000040800F2
:1000000018360020150600080D0400080F0400082B
:1000100013040008170400081B0400080000000077
:100020000000000000000000000000001F040008A5
:100030002104000800000000230400082D06000829
:100040002F0600082F0600082F0600082F060008BC
:100050002F0600082F0600082F0600082F060008AC
:100060002F0600082F0600082F0600082F0600089C
:100070002F0600082F0600082F0600082F0600088C
:100080002F0600082F0600082F0600082F0600087C
:10009000150300082F0600082F0600082F06000889
:1000A0002F0600082F0600082F0600082F0600085C
:1000B0002F0600082F060008930200082F060008EC
:1000C0002F0600082F0600082F0600082F0600083C
:1000D0002F0600085D0200082F0600082F06000802
:1000E0002F0600082F06000827040008DFF80CD0B0
:1000F0000EF062FA0048004721010008183600207F
:10010000EFF30980704780F309887047EFF30880A8
:10011000704780F30888704740BA7047C0BA70478C
:100120000121042002F052FA0121082002F04EFAC7
:100130000121102002F04AFA0121480202F046FA99
:100140000121084602F042FA0121880302F03EFA3A
:100150000121080302F03AFA0121042002F043FAD7
:100160000121022002F03FFA0121480502F03BFA8A
:100170000121480602F037FA0121804801F03AFED9
:1001800009F07EFB4CF2503009F074F97C4809F01C
:1001900059F87C48416E884700200AF04AFD01204A
:1001A0000AF047FD02200AF044FD03200AF041FD59
:1001B00000200DF079F901200DF076F902200DF004
:1001C00073F909F015FA09F0C4FA09F0FEFA6E485D
:1001D00008F084FE6D480121D0F86C2B904709F09F
:1001E000A3FA6BA26DA170A00EF04EFA35E003F0F9
:1001F0009BFB6448543003F078FB012802D161482E
:10020000C16E8847784803F070FB012807D15F482A
:10021000D0F8781B88475D48D0F8741B88475A4847
:10022000103003F062FB012802D1574808F086FE27
:100230006E4803F05AFB012803D16C480C3808F0D3
:100240008DFE6B4803F051FB012803D168480C3840
:1002500008F084FE0A2003F06BFBC8E710B54B489A
:10026000007820B94948D0F8701B884704E040F274
:100270002551604803F01AFB10BD10B50446204616
:1002800009F09DF8012803D14048D0F8701B884739
:1002900010BD10B558480078401C574908700846F2
:1002A000007802280BDB39480078012807D10020AC
:1002B0000870334809F026F83148FFF7DEFF32486E
:1002C00008F024FE01214D4803F030F903F0FEFA56
:1002D0004B480078401C4A490870084600780228BC
:1002E00004DB0020087001200AF090FC03200AF0D3
:1002F0008DFC01200DF0CCF842480088401C41499B
:100300000880084600884CF25031884201DD09F02F
:100310001CFA10BD10B53C490868022101F012F822
:1003200078B139490868022101F0A7F8364901F18E
:1003300020020868002100F082FE0120324981F885
:10034000340010BD70B504460D461048007858B909
:1003500000BF2848008800F080000028F9D0E1B2F2
:10036000244803F01AFA07E008480078012803D16E
:10037000E1B2034808F0A4FF204670BD000230003F
:100380005015002024140020D014002090010020DB
:1003900032323A32393A3436000000004D61792069
:1003A00031392032303234000D0A5B202053686529
:1003B0006C6C2056657273696F6E3A20312E352E43
:1003C00037205D202D2D205B20444154453A2025C7
:1003D00073205D202D2D205B2054494D453A20256A
:1003E00073205D0D0A000000E80C0020FC140020C2
:1003F0001C150020003801400000002000080040CB
:10040000010000200200002028160020704700BFD5
:10041000FEE700BFFEE700BFFEE700BFFEE7704754
:1004200070477047704710B54FF4802001F00DF908
:1004300010BD00000CB50020019000906C480068D1
:1004400040F480306A49086000BF6948006800F4E1
:10045000003000900198401C0190009818B9019854
:10046000B0F5A06FF1D16248006800F4003010B11F
:100470000120009001E0002000900098012843D165
:100480005C48006840F010005A490860084600685F
:1004900020F0030008600846006840F00200086091
:1004A00053484068524948600846406848600846DA
:1004B000406840F4806048600846406820F47C1042
:1004C00048600846406840F4E81048600846006804
:1004D00040F08070086000BF4548006800F0007080
:1004E0000028F9D04248406820F0030040494860A5
:1004F0000846406840F00200486000BF3C48406841
:1005000000F00C000828F9D10CBD10B5FFF792FFE0
:1005100010BD10B53648006840F00100344908604D
:100520000846406834490840314948600846006838
:10053000324908402E4908600846006820F48020AF
:1005400008600846406820F4FE0048604FF41F0031
:100550008860FFF7DAFF4FF000602949086010BD9E
:1005600010B5002100200022214B5B6803F00C0134
:1005700021B1042906D0082928D107E0214B224CBB
:10058000236027E01F4B204C236023E0184B5B685F
:1005900003F47010164B5B6803F48032022303EB04
:1005A000904022B9194B4343174C23600DE0104B88
:1005B0005B6803F4003323B1144B4343124C2360B4
:1005C00003E0104B4343104C236003E00D4B0E4CF3
:1005D000236000BF00BF064B5B68C3F303130C4CE2
:1005E000E15C094B1B68CB40074C236010BD000049
:1005F00000100240002002400000FFF8FFFFF6FE5E
:1006000008ED00E000127A000400002000093D001F
:10061000080000200648804706480047FEE7FEE73E
:10062000FEE7FEE7FEE7FEE7FEE7FEE7FEE7FEE7A2
:1006300013050008ED00000831490143314A1160FB
:10064000704770B5002100230F22C47804B32D4CED
:10065000246804F4E064C4F5E064210AC1F10403F1
:10066000CA40447804FA03F1847814402143090114
:10067000254C0678A155047804F01F050124AC40F0
:1006800005786D11AD0005F1E025C5F8004109E0E0
:10069000047804F01F050124AC401C4D0678761147
:1006A00045F8264070BD1A4A0A400243154B1B1FED
:1006B0001A60704739B1134A121D12680243114B78
:1006C0001B1D1A6006E00F4A121D126882430D4B73
:1006D0001B1D1A607047042808D14FF0E0210969FA
:1006E00041F004014FF0E022116107E04FF0E021FA
:1006F000096921F004014FF0E02211617047000008
:100700000000FA050CED00E000E400E080E100E00C
:1007100080FFFF1F10B50446F748204430B1B0F504
:10072000806F0DD0B0F5C05F1ED113E001214802EB
:1007300001F066FF00214FF4007001F061FF14E04A
:100740000121880201F05CFF00214FF4806001F07C
:1007500057FF0AE00121C80301F052FF00214FF4C6
:10076000004001F04DFF00E000BF00BF10BD30B5FC
:100770000246002000235068E04C20400D790C68B0
:1007800044EA0524204350609068DD4C2040D1E9C4
:1007900002542C434D7944EA450420439060D06ACA
:1007A00020F470000C7C641E1C43E3B240EA03504A
:1007B000D06230BD00210160017141718160C16072
:1007C00001210174704721B1826842F00102826008
:1007D00003E0826822F001028260704721B18268E2
:1007E00042F48072826003E0826822F48072826048
:1007F000704710B50023CBB21AB144681C43446063
:1008000002E044689C43446010BD816841F00801E7
:1008100081607047014600208A6802F008020AB130
:10082000012000E000207047816841F004018160F0
:100830007047014600208A6802F004020AB10120D4
:1008400000E00020704721B1826842F4A00282607B
:1008500003E0826822F4A002826070470146002013
:100860008A6802F480020AB1012000E0002070478B
:1008700010B50A4600210023416821F46041531E4F
:1008800041EA4331416010BD21B1426842F4006247
:10089000426003E0426822F4006242607047F0B5B3
:1008A00004460D4600200021092D11DDE068A5F168
:1008B0000A0606EB4607072606FA07F18843A5F164
:1008C0000A0606EB460603FA06F10843E0600CE070
:1008D000206905EB4507072606FA07F1884305EB73
:1008E000450603FA06F108432061072A0FDA606B18
:1008F000561E06EB86071F2606FA07F18843561E8A
:1009000006EB860605FA06F10843606322E00D2A2D
:100910000FDA206BD61F06EB86071F2606FA07F1B3
:100920008843D61F06EB860605FA06F108432063C6
:1009300010E0E06AA2F10D0606EB86071F2606FA14
:1009400007F18843A2F10D0606EB860605FA06F1CB
:100950000843E062F0BD21B1826842F480128260F7
:1009600003E0826822F48012826070470146C86CFE
:1009700080B2704763480068704721B1426842F412
:100980008062426003E0426822F480624260704705
:1009900021B1426842F48052426003E0426822F48E
:1009A0008052426070470A460021816821F4E0418C
:1009B00011438160704721B1826842F40042826035
:1009C00003E0826822F400428260704721B18268AD
:1009D00042F40212826003E0826822F40212826012
:1009E0007047014600208A6802F400120AB1012013
:1009F00000E000207047F0B50446154600200022B4
:100A00000026092911DDE068A1F10A0707EB470C70
:100A1000072707FA0CF29043A1F10A0707EB4707F3
:100A200003FA07F21043E0600CE0206901EB410C8F
:100A3000072707FA0CF2904301EB410703FA07F28C
:100A400010432061A06BC0F30156EF1C06F1010CAE
:100A5000A7EB0C0707EB870C1F2707FA0CF2904354
:100A6000EF1C06F1010CA7EB0C0707EB870701FA57
:100A700007F21043A063F0BD10B50A460021002321
:100A8000816B21F44011531E41EA0351816310BD73
:100A90004250704702465018806A80B270470A463A
:100AA00000214168184B1940114341607047416271
:100AB000826270470A460021416821F01F011143FC
:100AC0004160704740B10F494439096841F4000161
:100AD0000C4A443A116007E00A494439096821F494
:100AE0000001084A443A116070470246002013682A
:100AF0000B405BB101200AE000DCFEBFFFFEF0FF0F
:100B0000FDF7F1FF4C240140FFFD3FFF002070473F
:100B1000CA430260704770B50246002000230024DB
:100B20000B125568CEB205EA060415681D4015B1D2
:100B30000CB1012000E0002070BD00220A12D34356
:100B40000360704710B50446FE48844208D1012175
:100B5000480601F062FD00214FF0007001F05DFDDC
:100B600010BD30B5024600200023146824F00204B2
:100B70001460146844F00104146000E05B1C5468C5
:100B800004F001041CB94FF6FF74A342F6D1546877
:100B900004F001040CB900206CE08C79012C04D124
:100BA000146844F08004146003E0146824F08004A6
:100BB0001460CC79012C04D1146844F04004146012
:100BC00003E0146824F0400414600C7A012C04D172
:100BD000146844F02004146003E0146824F0200436
:100BE00014604C7A012C04D1146844F01004146091
:100BF00003E0146824F0100414608C7A012C04D1F2
:100C0000146844F00804146003E0146824F0080435
:100C10001460CC7A012C04D1146844F004041460EC
:100C200003E0146824F0040414608C78A407CD78E1
:100C300044EA05640D7944EA05444D7944EA0554D3
:100C40000D886D1E2C43D461146824F001041460D7
:100C5000002300E05B1C546804F001041CB14FF653
:100C6000FF74A342F6D1546804F001040CB10020D3
:100C700000E0012030BD10B50021837A012202FA84
:100C800003F1B14A126842F00102AF4B1A60AE4A5A
:100C90001C3212688A43AC4B1C331A60027BCAB9FF
:100CA000A94A0C3212688A43A74B0C331A60428857
:100CB000C38842EA0343A44A4032847A42F834307B
:100CC0000288838842EA03439F4A4032847A02EBD7
:100CD000C4025360027B012A19D19B4A0C3212686C
:100CE0000A43994B0C331A604288038842EA034353
:100CF000954A4032847A42F83430C288838842EA86
:100D00000343914A4032847A02EBC4025360C27AB0
:100D10003AB98D4A121D12688A438B4B1B1D1A600B
:100D200006E0894A121D12680A43874B1B1D1A6090
:100D3000028932B9844A143212688A43824B1433CE
:100D40001A600289012A06D17F4A143212680A43C6
:100D50007D4B14331A60427B012A06D17A4A1C3239
:100D600012680A43784B1C331A60774A126822F0E3
:100D70000102754B1A6010BD00218171C1710172B1
:100D800041728172C1728170C170032101710221AF
:100D900041710121018070476B49096841F00101EF
:100DA000694A11601146096843F60E729143664A1A
:100DB00011601146096841EA002111601146096875
:100DC00021F001011160704721B1026842F48032C4
:100DD000026003E0026822F4803202607047E1B1F1
:100DE000026842F0800202604FF4C272125842F46C
:100DF00080734FF4C27213504FF4CA72125842F407
:100E000080734FF4CA7213504FF4D272125842F4E6
:100E100080734FF4D27213501BE0026822F08002FC
:100E200002604FF4C272125822F480734FF4C272FF
:100E300013504FF4CA72125822F480734FF4CA72DE
:100E400013504FF4D272125822F480734FF4D272BE
:100E50001350704710B502460020936803F080637A
:100E6000B3F1806F00D110E0936803F00063B3F139
:100E7000006F01D1012008E0936803F08053B3F1C3
:100E8000805F01D1022000E00420042879D002F51F
:100E9000C07303EB00131B6803F0010402F5C07379
:100EA00003EB00131C600B7A7BB94B7A0C8843EA86
:100EB000445302F5C07404EB00142468234302F584
:100EC000C07404EB0014236010E00B7A4C6843EA12
:100ED000C4034C7A234302F5C07404EB0014246865
:100EE000234302F5C07404EB001423608B7A03F0F3
:100EF0000F038B7202F5C07303EB00135B6823F0E2
:100F00000F0402F5C07303EB00135C6002F5C073BD
:100F100003EB00135B688C7A234302F5C07404EB87
:100F2000001463608B7B1C064B7B44EA03440B7B01
:100F300044EA0323CC7A234302F5C07404EB001483
:100F4000A36003E000640040006600408B7C1C0648
:100F50004B7C44EA03440B7C44EA0323CC7B2343CD
:100F600002F5C07404EB0014E36002F5C07303EBF8
:100F700000131B6843F0010402F5C07303EB001378
:100F80001C6010BD10B50246002321B1012907D015
:100F900002290FD109E09068F94C00EA04030BE044
:100FA0009068F84C00EA040306E09068F64C00EA0A
:100FB000040301E0002300BF00BFF44C181BA34250
:100FC00016D007DC83B16FF08060184470B102283E
:100FD00018D111E0B0F5007F10D0ED4C204448B19D
:100FE000B0F5003F0ED10BE002230DE000230BE033
:100FF000002309E0002307E0012305E0012303E0CB
:10100000012301E0002300BF00BFD8B210BD21B111
:10101000012907D002290FD109E0826842F080023D
:1010200082600AE0826842F40042826005E08268E1
:1010300042F40002826000E000BF00BF704710B5BC
:1010400000F5D87303EB01131B6803F0040313725C
:10105000137A53B900F5D87303EB01131B6840F200
:10106000FF7404EA5353136009E000F5D87303EBEF
:1010700001131B686FF0604404EAD303536000F56A
:10108000D87303EB01131B6803F00203537200F5DE
:10109000D87303EB01135B6803F00F03937200F541
:1010A000D87303EB01135B681B0AD37400F5D87384
:1010B00003EB01139B68D37200F5D87303EB0113A4
:1010C0009B681C0A147300F5D87303EB01139B682B
:1010D0001C0C547300F5D87303EB01139B681B0EB3
:1010E000937300F5D87303EB0113DB68D37300F53A
:1010F000D87303EB0113DB681C0A147400F5D87372
:1011000003EB0113DB681C0C547400F5D87303EB7C
:101110000113DB681B0E937421B9C36843F02003ED
:10112000C36003E0036943F02003036110BD21B9EC
:10113000C26842F02002C26003E0026942F020026D
:10114000026170470246002019B9D36803F003001A
:1011500006E0012903D1136903F0030000E0002039
:10116000704710B502460B4600204FF6FF71BBB921
:10117000146824F0020444F00104146000E0491EE5
:10118000546804F00304012C01D00029F7D15468FD
:1011900004F00304012C01D0002032E0012030E0F3
:1011A000012B13D1146824F00304146000E0491EDD
:1011B000546804F003040CB10029F8D1546804F019
:1011C00003040CB100201CE001201AE0022B17D10F
:1011D000146824F0010444F00204146000E0491E85
:1011E000546804F00304022C01D00029F7D154689C
:1011F00004F00304022C01D0002002E0012000E0F2
:10120000002010BD014600200A6822F0010242F0D1
:1012100002020A604A6802F00302022A00D1012099
:10122000704701464FF6FF7200200B6823F002035F
:101230000B6000E0521E4B6803F00203022B01D149
:10124000002AF7D14B6803F00203022B00D00120E3
:101250007047014600208A6902F07000704701461D
:1012600000208A69100E7047014600208A69C2F387
:10127000074070471AB143690B43436102E0436979
:101280008B434361704710B50246002001F47003A0
:1012900043B19369C1F3130423400BB101202DE046
:1012A00000202BE001F0807343B15368C1F31304B5
:1012B00023400BB1012021E000201FE001F000637A
:1012C00043B19368C1F3130423400BB1012015E02F
:1012D000002013E001F0007343B1D368C1F313049D
:1012E00023400BB1012009E0002007E01369C1F39E
:1012F000130423400BB1012000E0002010BD0022A8
:10130000244B994202D10023836111E0C1F31302FF
:1013100001F000730BB1C2600AE001F080630BB111
:10132000026105E001F000630BB1826000E0426001
:1013300070470246002002EA01030BB1012000E0E1
:101340000020704770B504460D46002660692840AD
:10135000002872D0B5F5807F69D01DDC082D42D001
:1013600006DC012D2DD0022D31D0042D7FD134E0AB
:10137000102D3ED0202D42D0402D78D145E00000E8
:10138000030000040003000800000310000100082F
:101390000001FFF77000F030B5F5004F61D009DCB7
:1013A000B5F5007F4AD0B5F5806F4DD0B5F5006F2B
:1013B0005DD150E0B5F5803F2DD0B5F5003F56D159
:1013C0002FE0A0685549FFF7B4FF064651E0E068FA
:1013D0000321FFF7AEFF06464BE0E0680821FFF768
:1013E000A8FF064645E0E0681021FFF7A2FF064689
:1013F0003FE020690321FFF79CFF064639E02069A2
:101400000821FFF796FF064633E020691021FFF719
:1014100090FF06462DE060680821FFF78AFF064628
:1014200027E060681021FFF784FF064621E0A069ED
:101430000121FFF77EFF06461BE01BE0A0690221A9
:10144000FFF777FF064614E0A0690421FFF771FF5C
:1014500006460EE00BE0A0697021FFF76AFF064622
:1014600007E060680421FFF764FF064601E00026FC
:1014700000BF00E00026304670BDB1F5007F3AD0D5
:101480000FDC202928D006DC01291CD004291DD01E
:10149000082940D11DE0402921D0B1F5807F3AD103
:1014A00026E0B1F5004F31D006DCB1F5806F25D0D4
:1014B000B1F5006F2FD124E0B1F5803F12D0B1F526
:1014C000003F28D111E0154A826025E00822C26061
:1014D00022E01022C2601FE0082202611CE01022FC
:1014E000026119E00822426016E01022426013E017
:1014F0000422426010E0042242600DE004224260B7
:101500000AE0002282610422426005E0002282613A
:101510000422426000E000BF00BF704701010100EB
:1015200000204C490860091D0860091D0860091D5C
:10153000086049484749143108607047817900299B
:1015400046D04449096802689143424A1160111D1E
:101550000968026891433F4A121D116001793F4AB0
:101560001144D1F800140268114302793B4B1A442C
:10157000C2F8001437490831096802689143354AB6
:1015800008321160111D096802689143314A0C321A
:101590001160417910290ED1111F096802681143A9
:1015A0002C4A08321160111D096802681143294A4A
:1015B0000C32116018E04179284A1144D1F8001426
:1015C000026811434279254B1A44C2F800140BE01B
:1015D0000179224A1144D1F800140268914302793A
:1015E0001E4B1A44C2F800147047002101600171BB
:1015F0000C21417100218171704716491031096831
:101600000143144A10321160704701460020114A0C
:10161000143212680A400AB1012000E0002070472D
:101620000C49143108607047014600200022094B24
:101630001B6803EA0102074B14331B680B4013B10C
:101640000AB1012000E0002070470249143108600F
:101650007047000000040140FFFF07000000014048
:1016600001460020FB4A106800F038000843106073
:101670007047F849096821F00801F64A11601146DF
:101680000968014311607047F249096821F01001AF
:10169000F04A116011460968014311607047EE4835
:1016A000EC494860ED4848607047EA48006940F0FE
:1016B0008000E849086170470420E649C96801F0E4
:1016C000010109B101200EE0E249C96801F00401FD
:1016D00009B1022007E0DF49C96801F0100109B132
:1016E000032000E00420704708B500200090FF2090
:1016F000009002E00098401E009000980028F9D168
:1017000008BD70B504460425FFF7D6FF054605E081
:10171000FFF7EAFFFFF7D0FF0546641E012D01D158
:10172000002CF5D104B90525284670BD70B50546D5
:10173000042440F6FF70FFF7E4FF0446042C19D19F
:10174000C448006940F00200C2490861084645618A
:10175000006940F04000086140F6FF70FFF7D1FFDC
:101760000446012C06D0BB48006941F6FD710840D3
:10177000B8490861204670BD10B5042440F6FF70DA
:10178000FFF7BFFF0446042C18D1B248006940F0AF
:101790000400B04908610846006940F04000086153
:1017A00040F6FF70FFF7ADFF0446012C06D0A948B4
:1017B000006941F6FB710840A6490861204610BD4A
:1017C00010B5042440F6FF70FFF79BFF0446042C7D
:1017D0003BD1A1489F498860A048886008460069BD
:1017E00040F0200008610846006940F040000861B0
:1017F00040F6FF70FFF785FF0446042C1CD1954886
:10180000006941F6DF7108409249086108460069A5
:1018100040F010000861A520914908800F20FFF7D3
:1018200070FF0446012C10D08A48006941F6EF7120
:1018300008408849086108E0012C06D08548006905
:1018400041F6EF71084083490861204610BD70B52C
:1018500005460E4604240F20FFF753FF0446042CD0
:1018600025D17C48006940F001007A4908612E804A
:101870000F20FFF746FF0446042C0FD1300C688080
:101880000F20FFF73EFF0446012C10D0714800697D
:1018900041F6FE7108406F49086108E0012C06D04E
:1018A0006C48006941F6FE7108406A4908612046AB
:1018B00070BD70B505460E4604240F20FFF721FFCA
:1018C0000446042C13D16348006940F001006149CB
:1018D00008612E800F20FFF714FF0446012C06D06C
:1018E0005C48006941F6FE7108405A49086120468B
:1018F00070BD70B505460E4604240F20FFF701FFAA
:101900000446042C17D154485249886053488860D3
:101910000846006940F0100008612E800F20FFF794
:10192000F0FE0446012C06D04A48006941F6EF71EA
:10193000084048490861204670BD2DE9F04704463B
:101940004FF6FF763746B046B1460425E443E6B28B
:10195000C4F30727C4F307484FEA14690F20FFF7C1
:10196000D0FE0546042D40D13B483A4988603B48AB
:1019700088600846006940F010000861FF2E06D01C
:101980003748083006800F20FFF7BBFE0546042DC0
:1019900008D1FF2F06D032480A3007800F20FFF70A
:1019A000B0FE0546042D0AD1B8F1FF0F07D02C4830
:1019B0000C30A0F800800F20FFF7A3FE0546042D91
:1019C0000AD1B9F1FF0F07D025480E30A0F80090DA
:1019D0000F20FFF796FE0546012D06D01D48006931
:1019E00041F6EF7108401B4908612846BDE8F087C1
:1019F00070B50546042440F6FF70FFF782FE0446EA
:101A0000042C4AD114481349886014488860084659
:101A1000006940F0200008610846006940F040007D
:101A2000086140F6FF70FFF76CFE0446042C2BD1D2
:101A30000848006941F6DF71084006490861084618
:101A4000006940F01000086165B100200449088079
:101A50000BE000000020024023016745AB89EFCD79
:101A600000F8FF1FA5204549088040F6FF70FFF7EA
:101A700048FE0446012C10D04148006941F6EF7140
:101A800008403F49086108E0012C06D03C48006945
:101A900041F6DF7108403A490861204670BD2DE9E2
:101AA000F04107460D4616460424364834498860FE
:101AB000354888600F20FFF724FE0446042C1AD115
:101AC0002F48006940F010002D49086147EA0500E1
:101AD000304340F0F8002949891C08800F20FFF7A7
:101AE00010FE0446012C06D02548006941F6EF712E
:101AF0000840234908612046BDE8F0812048C069BC
:101B0000800870471E48006A704700201C49C96958
:101B100001F0020109B1012000E00020704700201F
:101B20001749096801F0200109B1012000E00020F7
:101B3000704729B1124A12690243114B1A6104E03D
:101B40000F4A126982430E4B1A617047014600200A
:101B5000012908D10A4AD26902F001020AB1012022
:101B600008E0002006E0064AD2680A400AB10120D7
:101B700000E0002070470249C860704700F8FF1F6E
:101B80000020024023016745AB89EFCD10B5044624
:101B9000C349601A8C422FD009DCC248204480B16E
:101BA000B0F5806F16D0B0F5006F4AD11BE0B0F5EC
:101BB000806F2AD0B0F5006F30D0B0F5406F40D1C3
:101BC00035E00121042000F01BFD0021042000F07D
:101BD00017FD37E00121082000F012FD0021082048
:101BE00000F00EFD2EE00121102000F009FD002183
:101BF000102000F005FD25E00121202000F000FD6F
:101C00000021202000F0FCFC1CE00121402000F01D
:101C1000F7FC0021402000F0F3FC13E001218020BC
:101C200000F0EEFC0021802000F0EAFC0AE0012137
:101C3000080200F0E5FC00214FF4807000F0E0FCA9
:101C400000E000BF00BF10BD10B50121084600F044
:101C5000D7FC0021012000F0D3FC10BD2DE9F0419C
:101C6000024600250026002000230024002791F8CA
:101C700003C00CF00F0591F803C00CF0100CBCF180
:101C8000000F03D091F802C04CEA050591F800C09E
:101C9000BCF1000F31D0146800202BE04FF0010C94
:101CA0000CFA00F3B1F800C00CEA03069E4220D102
:101CB00083004FF00F0C0CFA03F7BC4305FA03FC4A
:101CC0004CEA040491F803C0BCF1280F06D14FF090
:101CD000010C0CFA00FCC2F814C00AE091F803C031
:101CE000BCF1480F05D14FF0010C0CFA00FCC2F812
:101CF00010C0401C0828D1D31460B1F800C0BCF15A
:101D0000FF0F34DD546800202EE000F1080C4FF086
:101D1000010808FA0CF3B1F800C00CEA03069E4271
:101D200021D183004FF00F0C0CFA03F7BC4305FAE6
:101D300003FC4CEA040491F803C0BCF1280F05D160
:101D400000F1080C08FA0CF8C2F8148091F803C0EE
:101D5000BCF1480F07D100F1080C4FF0010808FA58
:101D60000CF8C2F81080401C0828CED35460BDE89F
:101D7000F0814FF6FF710180022181700421C17052
:101D8000704702469068084008B101207047002063
:101D9000FCE70146886880B2704702460020D3689D
:101DA0000B400BB1012000E0002070470146C868DD
:101DB00080B270470AB1016100E041617047C160C3
:101DC00070474FF480320A43826181618261826987
:101DD0008269704702460020334B18684FF68073C3
:101DE000184040EA021008432F4B186070472F49F3
:101DF000C8617047F0B50A46002300240021002581
:101E0000294E7168C0F3034583B200F44016B6F55D
:101E1000401F08D121F07061234E766826F070666D
:101E2000214F7E6012E000F48016B6F5801F06D1C7
:101E3000032606FA05F4A14341F0706106E0460D61
:101E4000360103FA06F6B14341F0706122B1460D46
:101E5000360103FA06F63143134E7160F0BD30B51A
:101E600000228B071C0F0F2303FA04F20E4B0833DA
:101E70008C1053F8243093430B4C08348D1044F8E5
:101E8000253023468C1053F824308C07240F00FA99
:101E900004F42343044C08348D1044F8253030BD3D
:101EA0000014014000F8FEBF000001400000204285
:101EB00010B50446F748844209D10121480500F0D5
:101EC000ACFB00214FF4001000F0A7FB08E001215B
:101ED000880500F0A2FB00214FF4800000F09DFB7C
:101EE00010BD2DE9F04385B004460D460026B146ED
:101EF0000427DFF8A483A6884FF6C0700640684622
:101F000000F0F7FADDF80880E448B8FBF0F01FFABB
:101F100080F946EA0906A68020884FF6FE7108403F
:101F200020800026DE49286888420CD828684000B6
:101F3000B8FBF0F087B2042F00DA04273E4309F122
:101F40000100208427E0E8884BF6FF71884206D123
:101F5000286800EB4000B8FBF0F087B209E0286881
:101F600000EBC00101EB0010B8FBF0F087B247F4C2
:101F70008047C7F30B0008B947F0010747F400405A
:101F800006434FF4967009FB00F04FF47A7190FB12
:101F9000F1F0401C2084A683208840F001002080BE
:101FA00026884FF6F5300640A8886989084306431D
:101FB0002680A88929890843208105B0BDE8F083DF
:101FC00041F288310160002181804BF6FF71C180B0
:101FD0000021018141814FF480418181704721B10D
:101FE000028842F00102028004E002884FF6FE738C
:101FF0001A400280704721B1828842F400628280D8
:1020000004E082884FF2FF731A408280704721B14A
:10201000828842F48052828004E082884EF6FF7308
:102020001A408280704721B1028842F48072028097
:1020300004E002884FF6FF631A400280704721B126
:10204000028842F40072028004E002884FF6FF53D7
:102050001A400280704721B1028842F480620280F7
:1020600004E002884FF6FF331A40028070470A46A8
:10207000002181894FF60173194002F0FE031943D4
:102080008181704721B1828942F00102828104E09E
:1020900082894FF6FE731A408281704721B102880F
:1020A00042F04002028004E002884FF6BF731A40FB
:1020B000028070471AB183880B43838002E08388D3
:1020C0008B4383807047018270470146088AC0B203
:1020D000704712B141F0010102E04FF6FE73194062
:1020E0000182704708B502460020009000920098D7
:1020F000084400900098008808BD21B1028842F48D
:102100000042028003E00288C2F30E0202807047A0
:10211000B1F5006F04D1028842F40062028004E04D
:1021200002884FF2FF731A4002807047B1F5005FDA
:1021300004D1028842F40052028004E002884DF685
:10214000FF731A400280704721B1028842F4805226
:10215000028004E002884EF6FF731A400280704746
:10216000B1F5006F04D1028842F40062028004E0FD
:1021700002884FF2FF731A400280704721B1028833
:1021800042F02002028004E002884FF6DF731A401A
:10219000028070470146088B0012704721B1028807
:1021A00042F01002028004E002884FF6EF731A40FA
:1021B0000280704721B9028842F08002028004E068
:1021C00002884FF67F731A4002807047B1F5804F46
:1021D00005D0828B4BF6FF731A40828303E0828B1B
:1021E00042F480428283704770B502460024002585
:1021F00000230020958A138B1B0445EA030626F072
:102200007F4404EA01068E4201D1012000E0002053
:1022100070BD10B501460020002300228B8A0A8B76
:10222000120443EA020424F07F4010BD0CB50246BC
:10223000002000230193009300920B0F019321F0E3
:102240007F41019B1BB1009B1433009303E0090CF9
:10225000009B18330093009B1B680B400BB10120BF
:1022600000E000200CBD002221F07F42D343838296
:10227000704730B5024600200023948801F0E065E5
:1022800004EA154321F07F41948A0C4054B14BB1CC
:10229000012008E00054004000127A0040420F0084
:1022A000A0860100002030BD002221F07F42D343F0
:1022B000838270470E49086070470D494860704737
:1022C0000B49886070474AF6AA20094908607047A0
:1022D0004CF6CC4006490860704701460020044A8D
:1022E000D2680A400AB1012000E0002070470000D7
:1022F00000300040DE48006840F00100DC49086022
:1023000008464068DB490840D949486008460068EB
:10231000D9490840D64908600846006820F4802062
:1023200008600846406820F4FE004860002088608D
:102330007047CF49096821F48031CD4A11601146B8
:10234000096821F480211160B0F5803F03D0B0F519
:10235000802F0ED106E0C649096841F48031C44A95
:10236000116007E0C249096841F4A021C04A116028
:1023700000E000BF00BF704710B5014600220023F7
:1023800000204A11012A02D1B94C236806E0022A32
:1023900002D1B74C236A01E0B54C636A01F01F0219
:1023A000012494401C400CB1012000E0002010BD2D
:1023B00038B5002000900024002500BF3120FFF731
:1023C000DBFF05460098401C00901DB90098B0F551
:1023D000A06FF3D13120FFF7CFFF08B1012400E057
:1023E0000024204638BD01460020A14A106820F094
:1023F000F80040EAC10010607047A04908607047CB
:10240000024600209A4B586820F47C1042EA0103EF
:102410001843974B586070479849086670470146C3
:102420000020934A506820F0030008435060704732
:102430008F48406800F00C007047014600208C4A2D
:10244000506820F0F00008435060704701460020BB
:10245000874A506820F4E0600843506070470146A6
:102460000020834A506820F4605040EAC100506068
:10247000704729B17E4A527A02437D4B5A7204E07A
:102480007B4A527A82437A4B5A7270477B49D831E1
:102490000860704701460020754A506820F44040AB
:1024A0000843506070470021714A20321170704A11
:1024B00082F82010012802D004280AD104E001216A
:1024C0006B4A2032117005E00521694A20321170F3
:1024D00000E000BF00BF7047694908607047644969
:1024E000096A0143624A11627047654944390860CC
:1024F000704730B500210022002400235C4D6D6838
:1025000005F00C0121B1042905D0082923D105E0EB
:102510005C4D056022E05B4D05601FE0544D6D6829
:1025200005F47012022505EB9242514D6D6805F4D9
:1025300080341CB9544D554305600BE04C4D6D681B
:1025400005F400351DB1504D5543056002E04D4D79
:102550005543056002E04B4D056000BF00BF444D90
:102560006D6805F0F0010909484D6B5C0568DD40B8
:1025700045603F4D6D6805F4E061090A434D6B5CB1
:102580004568DD4085603A4D6D6805F46051C90AC3
:102590003E4D6B5C4568DD40C560354D6D6805F4AA
:1025A0004041890B3A4D6B5CC568B5FBF3F505619D
:1025B00030BD29B12E4A526902432D4B5A6104E0C5
:1025C0002B4A526982432A4B5A61704729B1284AE3
:1025D00092690243264B9A6104E0254A926982433C
:1025E000234B9A61704729B1214AD2690243204B9B
:1025F000DA6104E01E4AD26982431D4BDA617047FA
:1026000029B11B4AD2680243194BDA6004E0184A28
:10261000D2688243164BDA60704729B1144A1269B6
:102620000243134B1A6104E0114A12698243104BB2
:102630001A61704712494039086070470F49C864F1
:1026400070470B49C87170470948406A40F0807074
:1026500007494862704701460020054A92680A40CF
:102660000AB1012000E000207047014988727047DC
:10267000001002400000FFF8FFFFF6FE000042429B
:102680008004424200127A0000093D001800002038
:102690002800002010B50446BD48204478B1B0F5AC
:1026A000806F16D0B0F5784F1DD101210803FFF7D8
:1026B000A7FF00214FF48050FFF7A2FF14E0012193
:1026C0008803FFF7AAFF00214FF48040FFF7A5FF22
:1026D0000AE00121C803FFF7A0FF00214FF40040EA
:1026E000FFF79BFF00E000BF00BF10BD10B5002248
:1026F000028802F441520B884C8823438C88234380
:10270000CC8823430C8923434C8923438C8923435E
:10271000CC8923431A430280838B4FF2FF742340FA
:1027200083830B8A038210BD2DE9F04786B00546EE
:102730000C464FF0000902274FF000084FF0010A45
:102740000026A88B4FF240010840A883022028846D
:10275000B5F81C902089022801D100BF31E0A08883
:1027600010B94FF0010A01E04FF0020A01A8FFF78B
:10277000C0FEE088B0F5007F0AD1019800EB800030
:10278000400021890902B0FBF1F0401D86B20BE048
:102790004FEA4A1021894843019901EB8101490020
:1027A000B1FBF0F0401D86B20A20B6FBF0F606F051
:1027B0000108A6EB0800C0F34F074FF6FF7000EAD0
:1027C0000828022F01DBFF2F02DD02274FF000084F
:1027D00047EA0800E18808432884208840F4006024
:1027E00061880843A18808436189084340EA0909D0
:1027F000A5F81C9006B0BDE8F0870021018041805B
:102800008180C180018141818181C1810721018253
:1028100070470021018041808180C18002210181B7
:1028200000214181704721B1028842F040020280BC
:1028300004E002884FF6BF731A400280704721B14E
:10284000828B42F48062828304E0828B4FF6FF33F6
:102850001A408283704730B5002400230C110125F3
:10286000A540ABB21AB185881D43858002E08588FA
:102870009D43858030BD1AB183880B43838002E07D
:1028800083888B43838070478181704701468889A4
:1028900070474FF6FF62914204D0028842F4807282
:1028A000028004E002884FF6FF631A4002807047FE
:1028B00021B1828842F00402828004E082884FF6CF
:1028C000FB731A408280704702884FF2FF731A40F0
:1028D000028002880A4302807047018841F48051D7
:1028E0000180704721B1028842F40052028004E066
:1028F00002884DF6FF731A4002807047024600209E
:10290000012901D0108B00E0908A70470146088AA7
:102910007047B1F5804F04D1028842F480420280B2
:1029200004E002884BF6FF731A40028070470246AB
:10293000002013890B400BB1012000E000207047FC
:10294000CA4302817047F0B50246002000240023EC
:10295000002501F00F070126BE40B4B20B1101267D
:102960009E40B3B2968806EA03051689264016B142
:102970000DB1012000E00020F0BD10B5002201F0F3
:102980000F040123A3409AB2D343038110BD00007A
:1029900000C8FFBF10B50446F749601A8C4245D005
:1029A0000CDCB4F1804F1DD0F448204418B3B0F5CE
:1029B000806F29D0B0F5006F54D12EE0B0F5806F54
:1029C0003DD0B0F58E3F03D0B0F5923F4AD13FE005
:1029D0000121C802FFF714FE00214FF40060FFF749
:1029E0000FFE40E001210846FFF717FE00210120FD
:1029F000FFF713FE37E001210220FFF70EFE002152
:102A00000220FFF70AFE2EE001210420FFF705FE59
:102A100000210420FFF701FE25E001210820FFF737
:102A2000FCFD00210820FFF7F8FD1CE0012110202B
:102A3000FFF7F3FD00211020FFF7EFFD13E0012168
:102A40002020FFF7EAFD00212020FFF7E6FD0AE045
:102A500001214803FFF7D4FD00214FF40050FFF798
:102A6000CFFD00E000BF00BF10BD028802F08F0262
:102A70000280CA884B881A4303881A4302808A88D6
:102A800082850A880285BE4A904202D0BD4A9042A1
:102A900001D10A7A028601228282704770B5002431
:102AA00000220023058C4FF6FE7635400584028C0B
:102AB0008388048B4FF68F752C400D882C43751E30
:102AC0002A400D892A434D882A43CD888586AC4DFE
:102AD000A84202D0AB4DA84213D14FF6F7752A4059
:102AE0004D892A434FF6FB752A408D882A4347F6C5
:102AF000FF652B4047F6FF552B408D892B43CD8931
:102B00002B4383800483028470BD70B500240022AF
:102B10000023058C4FF6EF7635400584028C8388C0
:102B2000048B48F6FF752C400D884FF6FF7606EAB9
:102B300005252C434FF6DF752A400D8906EA051559
:102B40002A434D8806EA05152A43CD8805878C4D12
:102B5000A84202D08B4DA8421DD14FF67F752A4066
:102B60004D894FF6FF7606EA05152A434FF6BF75E5
:102B70002A408D8806EA05152A4347F6FF352B4083
:102B800047F2FF752B408D8906EA85052B43CD89D9
:102B900006EA85052B4383800483028470BD70B5EB
:102BA000002400220023058C4FF6FF663540058483
:102BB000028C8388848B4FF68F752C400D882C43B4
:102BC0004FF6FF552A400D894FF6FF7606EA052598
:102BD0002A434D8806EA05252A43CD888587684D16
:102BE000A84202D0674DA8421DD14FF2FF752A407E
:102BF0004D894FF6FF7606EA05252A434FF6FF3545
:102C00002A408D8806EA05252A4346F6FF752B40A3
:102C100045F6FF752B408D8906EA05152B43CD89B6
:102C200006EA05152B4383808483028470BD70B54A
:102C3000002400220023058C4EF6FF7635400584E3
:102C4000028C8388848B48F6FF752C400D884FF6E4
:102C5000FF7606EA05252C434DF6FF752A400D89BF
:102C600006EA05352A434D8806EA05352A43CD880C
:102C7000A0F84050424DA84202D0424DA84207D190
:102C8000C3F30D038D894FF6FF7606EA85152B43B6
:102C900083808483028470BD828B4FF2FF331A409D
:102CA0008283828B4FF6FF7303EA01231A438283E8
:102CB0007047F0B50C461546002100220026078C0F
:102CC0004EF6FF7C07EA0C070784818B028C4FF6D7
:102CD000FF7707EA043640F6FF4739404FF6FF77A3
:102CE00007EA05274FF6FF7C0CEA033C47EA0C078E
:102CF00039434DF6FF773A4046F480573A43818393
:102D00000284F0BD828B4FF6F3731A408283828B6C
:102D10000A4382837047F0B50C4615460021002215
:102D20000026078C4FF6FF6C07EA0C070784818B9F
:102D3000028C4FF6FF7707EA04264FF60C773940EE
:102D40004FF6FF7707EA03172F4339434FF6FF5734
:102D50003A4046F480773A4381830284F0BD028B87
:102D60004FF2FF331A400283028B4FF6FF7303EAE0
:102D700001231A43028370470010004000FCFFBF8C
:102D8000002C014000340140F0B50C4615460021EE
:102D900000220026078C4FF6EF7C07EA0C07078419
:102DA000018B028C4FF6FF7707EA041640F6FF47C7
:102DB00039404FF6FF7707EA033739434FF6FF777D
:102DC00007EA052739434FF6DF773A4046F0100708
:102DD0003A4301830284F0BD028B4FF6F3731A402D
:102DE0000283028B0A4302837047F0B50C461546F6
:102DF00000210022068C4FF6FE773E400684018BB0
:102E0000028C4FF60C7631407E1C06EA03162E43E8
:102E100031437E1E324044F0010632430183028476
:102E2000F0BD70B505460C46208850B92389A288AC
:102E300061882846FFF7D9FFE1882846FFF7CCFFD5
:102E400025E0208804280AD12389A28861882846A1
:102E5000FFF79AFFE1882846FFF781FF17E02088F7
:102E600008280AD12389A28861882846FFF753FFE2
:102E7000E1882846FFF746FF09E02389A288618898
:102E80002846FFF716FFE1882846FFF705FF70BDCB
:102E90002DE9F04105460C4600260127608808B957
:102EA000022600E00026A088012801D1022700E0C8
:102EB00001272088A0B92389A28861882846FFF7C6
:102EC00094FFE1882846FFF787FF23893A46314679
:102ED0002846FFF759FFE1882846FFF740FF13E037
:102EE0002389A28861882846FFF74EFFE18828469B
:102EF000FFF735FF23893A4631462846FFF775FF2D
:102F0000E1882846FFF768FFBDE8F0810A884B8812
:102F10001A438B881A43CB881A430B891A434B896F
:102F20001A438B891A43A0F8442070474FF6FF716B
:102F3000818000210180C1804180017270470021A1
:102F4000018041808180C180018141818181C18175
:102F50007047002101804180012181800021C180D2
:102F6000018170470021018041808180C180018101
:102F700041818181704721B1028842F001020280C3
:102F800004E0028840F2FE331A400280704731B1FB
:102F9000B0F8442042F40042A0F8442005E0B0F824
:102FA0004420C2F30E02A0F8442070471AB183896E
:102FB0000B43838102E083898B4383817047818245
:102FC000704741EA0203A0F8483070471AB183897C
:102FD0000B43838102E083898B438381704701899E
:102FE0004FF6F8721140018170470A4600210189AD
:102FF0004FF68F73194011430181704730B5044675
:103000000D4629462046FFF7F0FF208940F00700D3
:10301000208130BD2DE9F04104460D4616461F467D
:10302000602D06D13B46012231462046FFF7ACFE1B
:1030300005E03B46012231462046FFF7D6FE2946F1
:103040002046FFF7D2FF208940F007002081BDE82D
:10305000F08170B50C4600210189C9B244EA02052D
:103060004FF6FF7606EA032635432943018170BDFA
:103070002DE9F04105460E46174698460024434682
:103080003A4631462846FFF7E4FF2C894FF6F870A0
:10309000044044F007044FF68F70044044F070047D
:1030A0002C81BDE8F081F0B504460D4616461F465A
:1030B0003B46324629462046FFF7CBFF208940F4A5
:1030C00080402081F0BD0185828270470A46002140
:1030D000018840F28F331940114301807047F0B5E9
:1030E0000C4615461E460021002200230189028B52
:1030F000038C4FF6F877394021434FF6FC473A40AE
:1031000040F201173A434FF6DD773B404FF6FF7729
:1031100007EA06172F433B43018102830384F0BD76
:103120000A460021018B4FF68F731940114301832A
:1031300070470A460021018B48F6FF7319404FF68D
:10314000FF7303EA02231943018370470A460021F3
:10315000818B4FF68F7319401143818370470A4664
:103160000021818B48F6FF7319404FF6FF7303EA85
:10317000022319438183704721B1028842F0800203
:10318000028004E0028840F27F331A4002807047D8
:1031900021B1828842F00402828004E082884FF6E6
:1031A000FB731A408280704721B1828842F0080286
:1031B000828004E082884FF6F7731A40828070475D
:1031C00021B1828842F00102828004E082884FF6B9
:1031D000FE731A40828070470A460021018B4FF629
:1031E000F77319401143018370470A460021018B90
:1031F0004FF2FF7319404FF6FF7303EA022319439E
:10320000018370470A460021818B4FF6F7731940FE
:103210001143818370470A460021818B4FF2FF736F
:1032200019404FF6FF7303EA022319438183704765
:103230000A460021018B4FF6FB73194011430183AD
:1032400070470A460021018B4FF6FF3319404FF6B5
:10325000FF7303EA02231943018370470A460021E2
:10326000818B4FF6FB7319401143818370470A46E7
:103270000021818B4FF6FF3319404FF6FF7303EAAD
:1032800002231943818370470A460021018B4FF6C0
:103290007F7319401143018370470A460021018B57
:1032A000C1F30E014FF6FF7303EA022319430183B2
:1032B00070470A460021818B4FF67F7319401143F6
:1032C000818370470A460021818BC1F30E014FF6BE
:1032D000FF7303EA02231943818370470A460021E2
:1032E000018C4FF6FD7319401143018470470A4663
:1032F0000021018C4FF6F773194011430184704788
:103300000A460021018C4FF6DF7319404FF6FF7318
:1033100003EA02131943018470470A460021018C15
:103320004FF67F7319404FF6FF7303EA02131943F8
:10333000018470470A460021018C4FF6FF53194063
:103340004FF6FF7303EA02231943018470470A46CC
:103350000021018C4FF2FF7319404FF6FF7303EA0F
:1033600002231943018470470A460021018C4DF65F
:10337000FF7319404FF6FF7303EA023319430184C8
:10338000704710B5038C01248C40A3430384038C45
:1033900002FA01F4A4B22343038410BD10B5038CD8
:1033A00004248C40A3430384038C02FA01F4A4B2E6
:1033B0002343038410BD30B5038C01248C40A34308
:1033C000038409B1082918D100F1180303EB610344
:1033D0001B684FF68F74234000F1180404EB61045E
:1033E000236000F1180303EB61031B68134300F132
:1033F000180404EB610423601FE00B1FC3F34E04A9
:1034000000F118031B5948F6FF7423400C1FC4F346
:103410004E0500F1180463510B1FC3F34E0400F175
:1034200018031B594FF6FF7404EA022423430C1FB0
:10343000C4F34E0500F11804635130BD21B1028878
:1034400042F00202028004E0028840F2FD331A409A
:103450000280704721B1028842F00402028004E039
:10346000028840F2FB331A400280704721B1828803
:1034700042F08002828004E082884FF67F731A4017
:1034800082807047028840F2F7331A400280028837
:103490000A430280704782884FF68F731A408280F9
:1034A00082880A438280704702894FF6F8731A4077
:1034B000028102890A430281704702894FF67F73B5
:1034C0001A40028102890A43028170478184704751
:1034D0008185704781867047018770478187704773
:1034E000A0F8401070470288D2B2028002880A43D6
:1034F000028070470146888E70470146088F7047EA
:103500000146888F70470146B1F840007047014678
:10351000888C70470146088D704702460020138A48
:103520000B400BB1012000E000207047CA4302822B
:10353000704730B50246002000230024158A05EAB2
:103540000103958905EA010413B10CB1012000E0E3
:10355000002030BDCA4302827047000010B5044607
:10356000D749601A8C422BD006DCD648204498B14B
:10357000B0F5806F38D119E0B0F5806F2AD0B0F582
:103580006C4F31D101218803FFF73AF800214FF445
:103590008040FFF735F828E001214804FFF73DF8A7
:1035A00000214FF40030FFF738F81EE001218804B5
:1035B000FFF733F800214FF48020FFF72EF814E0D6
:1035C0000121C804FFF729F800214FF40020FFF77C
:1035D00024F80AE001210805FFF71FF800214FF445
:1035E0008010FFF71AF800E000BF00BF10BD2DE902
:1035F000F04786B005460E460024A24600BF00BF35
:1036000000272F462C8A4CF6FF700440F0880443B4
:103610002C82AC894EF6F3100440B08831890843FF
:10362000718908430443AC81AC8A4FF6FF400440E3
:10363000B0890443AC8201A8FEF75BFFA248874231
:1036400002D1DDF810A001E0DDF80CA00AEBCA0001
:1036500000EB0A1031688900B0FBF1F86420B8FB78
:10366000F0F004012009642101FB1089322000EBF5
:103670000910B0FBF1F000F00F0004432C8106B0FC
:10368000BDE8F0874FF41651016000218180C180B0
:1036900001810C21418100218181704710B50246D2
:1036A0000020108A4FF2FF0318400B884C882343F8
:1036B0008C882343CC8823431843108210BD0021FB
:1036C000018041808180C180704721B1828942F4AC
:1036D0000052828104E082894DF6FF731A40828194
:1036E0007047F0B503460024002600250020184648
:1036F000C1F3421401F01F06012707FA06F5012C59
:1037000001D10C3004E0022C01D1103000E0143063
:103710001AB107682F43076002E00768AF430760EC
:10372000F0BD1AB1838A0B43838202E0838A8B4304
:1037300083827047028A4FF6F0731A400282028A2F
:103740000A430282704782894FF2FF731A408281D6
:1037500082890A438281704721B1828942F0020244
:10376000828104E082894FF6FD731A40828170479E
:10377000028A4FF6DF731A400282028A0A430282EB
:10378000704721B1028A42F48042028204E0028A38
:103790004BF6FF731A4002827047C1F30802828021
:1037A000704701468888C0F308007047818941F05E
:1037B000010181817047028BD2B20283028B42EAFF
:1037C000012202837047028B02F47F420283028B44
:1037D0000A430283704721B1828A42F0200282822A
:1037E00004E0828A4FF6DF731A408282704721B16B
:1037F000828A42F01002828204E0828A4FF6EF73DE
:103800001A408282704721B1828A42F00802828285
:1038100004E0828A4FF6F7731A4082827047828AE8
:103820004FF6FB731A408282828A0A438282704773
:1038300021B1828A42F00202828204E0828A4FF63B
:10384000FD731A40828270470246002013880B40A5
:103850000BB1012000E000207047CA43028070478E
:1038600070B502460B460024002100250020C3F35A
:10387000421503F01F01012606FA01F1012D02D1C4
:103880009689314006E0022D02D1168A314001E0CE
:10389000968A31401C12012606FA04F41688344038
:1038A00011B10CB1012000E0002070BD10B5002264
:1038B00000230A1201249440A3B2DC43048010BD0B
:1038C000004C004000BCFFBF0038014028480068A1
:1038D000401C2749086027480068401C25490860AB
:1038E000704724490968416070470146214A486889
:1038F0001268904208D91F4A48681268801A4FF629
:10390000FF72101AC86004E01A4A48681268101A58
:10391000C860D1E90220904204D31648006848608C
:10392000012070470020FCE7002011490860704723
:103930000F490968104A1160114609680F4A126858
:10394000914203D90C4909680C4A1160704770B55F
:1039500004460D46A068284020B1294620460AF0BA
:1039600087FE03E0294620460AF084FE70BD000071
:1039700038000020340000202C00002030000020FF
:10398000F0B50446DDE905561088002805DD2088DD
:103990000F88B84201D10020F0BD1088401C108073
:1039A00030780F88D8550888401C90FBF5F705FB48
:1039B000170008800120EFE7F0B50446DDE9055661
:1039C000108880B172B61088401E10802088185C64
:1039D00030702088401C90FBF5F705FB1700208015
:1039E00062B60120F0BD0020FCE710B500230B609B
:1039F0000C68035510BD30B50446086890420ADAD9
:103A000018780D6860550868401C086000200D6833
:103A10006055012030BD0020FCE730B50446086841
:103A200000280ADD0868401E08600868205C1870DD
:103A300000200D686055012030BD0020FCE70146E4
:103A4000088880B27047000010B5038DF84C54F818
:103A50002330184701650123038510BD036D0BB9A1
:103A6000C36C036502230385F7E7036D23B90023C5
:103A700043640723038501E003230385EDE7036D1A
:103A80001B78934203D1036D5B1C036501E00423A3
:103A90000385E2E7036D1B7823B900234364072302
:103AA000038503E0036D836405230385D5E7036D78
:103AB0001B783BB1036D1B78934203D0036D5B1CF5
:103AC000036501E006230385C7E7036D1B78934276
:103AD00006D10023046D2370036D5B1CC36401E0F9
:103AE0000023C364836C436407230385B5E7002385
:103AF000038500BFB1E710B5038DCE4C54F82330D9
:103B0000184700234360816442640123038510BD8C
:103B10004468436C1B5D03724468836C1B5D437295
:103B2000037A3BB1037A447AA34203D143685B1C16
:103B3000436001E002230385E9E7037A447A1B1B13
:103B4000036003230385E2E70023038500BFDEE76C
:103B500010B5038DB84C54F8233018478164426483
:103B60000123038510BD836C1B7853B1836C1B78D4
:103B7000446C2370436C5B1C4364836C5B1C8364E8
:103B800004E00023446C237002230385EAE700234A
:103B9000038500BFE6E70FB470B504466020005B04
:103BA000A64951F82000004706A860630021A164DF
:103BB000E16301216020015370BC5DF814FBA06C2F
:103BC0000599085C18B102216020015309E0002129
:103BD00004F1AC00E26B8154E06BA0633B216020F8
:103BE0000153E9E7A06C0599085C252808D1A06C71
:103BF000401CA0640020E0600421602001530CE020
:103C0000A06C0599095C04F1AC00E26B8154E06B97
:103C1000401CE063032160200153CDE7A06C401CF1
:103C2000A064012160200153C6E7A06C0599085CDF
:103C3000302808DBA06C0599085C392803DC0521D5
:103C40006020015304E0042020610621602001531C
:103C5000B2E7A06C0599085C3038E16801EB81019E
:103C600000EB4100E060A06C401CA06404216020D7
:103C70000153A1E7A06C0599085C2E2808D1A06C1F
:103C8000401CA0640020206107216020015302E055
:103C90000821602001538FE7A06C0599085C30284B
:103CA00012DBA06C0599085C39280DDCA06C059925
:103CB000085C3038216901EB810100EB4100206193
:103CC000A06C401CA06402E008216020015373E74F
:103CD000A06C0599085C25280BD1252104F1AC00C6
:103CE000E26B8154E06B401CE063032160200153D0
:103CF00002E00921602001535EE7A06C0599085C91
:103D000020702078632803D10D216020015309E041
:103D10002078732803D110216020015302E00B2189
:103D20006020015348E7A06C0599095C04F1AC00E0
:103D3000E26B8154E06B401CE0630321602001537F
:103D40003AE7A06C0599085C20702078642803D1BC
:103D500014216020015309E02078782803D119212B
:103D60006020015302E00C216020015324E7A06C85
:103D70000599085C20702078662803D121216020F5
:103D8000015302E00A216020015315E7616B081D11
:103D9000606308782070E068401EA06000214C201D
:103DA00001530E215E2001530F216020015303E7D0
:103DB000217804F1AC00E26B8154E06B401CE063BD
:103DC000032160200153F7E64C20005BA168884284
:103DD0000EDA202104F1AC00E26B8154E06B401C50
:103DE000E0634C20005B401C81B24C20015306E094
:103DF00000214C2001535E20015B60200153DBE673
:103E0000616B081D60630868606000214C200153ED
:103E1000112160200153CFE64C20005B6168085CF3
:103E200070B14C20005B401C81B24C2001530AE071
:103E30004000002060000020700000207C00002076
:103E4000132160200153B7E64C20005B6168085CD9
:103E500088B14C20005B6168095C04F1AC00E26B46
:103E60008154E06B401CE0634C20005B401C81B23D
:103E70004C20015302E00321602001539CE64C20BA
:103E8000005BE168081AA06000214C200153122158
:103E90005E2001530F21602001538DE6616B081DE8
:103EA00060630868606100214C200153606900284C
:103EB00002DA6069404200E06069606215216020BA
:103EC000015379E6606A58B10A21606A90FBF1F00B
:103ED00060624C20005B401C81B24C2001530EE01C
:103EE0004C20005BE168081A6169002901DC0121AE
:103EF00000E00021401AA0601621602001535BE61B
:103F000000214C20015317215E2001530F21602016
:103F1000015351E618215E200153342160200153E2
:103F20004AE603216020015346E6616B081D606389
:103F30000868A06100214C200153A06920621A2169
:103F40006020015338E6206A000920624C20005BA3
:103F5000401C81B24C200153206A10B91B21602003
:103F6000015329E64C20005BE168081AA06000219B
:103F70004C2001531D215E2001531C216020015360
:103F80001AE64C20005BA16888420EDA302104F169
:103F9000AC00E26B8154E06B401CE0634C20005BA2
:103FA000401C81B24C20015306E000214C200153FB
:103FB0005E20015B60200153FEE500214C2001538F
:103FC000A06970B930214C20025B005B401C83B2B9
:103FD0004C20035304F17C0081541E2160200153C6
:103FE00002E01F2160200153E6E54C20005B002821
:103FF0000FDD4C20005B401E81B24C20015304F1C8
:104000007C00415C3030E26B8154E06B401CE0632B
:1040100002E0032160200153CEE5A06938B1207E83
:1040200000F00F00606220216020015302E01E2199
:1040300060200153C0E5606A0A280EDA94F8240073
:104040003030C1B24C20025B005B401C83B24C207C
:10405000035304F17C0081540DE094F824003730C0
:10406000C1B24C20025B005B401C83B24C20035366
:1040700004F17C008154A0690009A0611F21602027
:10408000015399E5606BC01D20F00700054608301C
:104090006063D5E9002110460AF000FAE0612221B0
:1040A0006020015388E500214E200153E0690AF0A9
:1040B00011FA03D223216020015302E02421602061
:1040C000015379E501214E200153E06980F0004061
:1040D000E0612421602001536EE500214C20015352
:1040E000E0690AF0C2F9606227216020015363E5AC
:1040F000EB49E0690AF087F9A062282160200153AA
:104100005AE5A06A0AF0B1F9616A01EB4102C2EB1B
:10411000C111A0EBC100E0620020206329216020D2
:10412000015349E5E06A88B10A21E06A90FBF1F2A7
:1041300001FB1200216B01EB810100EB41002063C8
:104140000A21E06A90FBF1F0E06204E0206BE0629B
:104150002A21602001532FE5606A58B10A21606A64
:1041600090FBF1F060624C20005B401C81B24C205F
:1041700001530FE04C20005BE168091A4E20005B00
:10418000081A401EA0602169A068401AA0602B2177
:104190006020015310E500214C2001532C215E20AA
:1041A00001530F216020015306E54E20005B0128DA
:1041B00006D12D22E36B581CE06304F1AC00C2541D
:1041C0002D2160200153F7E4E0690AF04EF96061A7
:1041D0002E215E200153342160200153ECE42E2275
:1041E000E36B581CE06304F1AC00C25400214C2086
:1041F00001532F2160200153DEE44C20005B216934
:10420000884203DA30216020015302E0032160205C
:104210000153D1E40A21E06A90FBF1F201FB1200A4
:104220006062312160200153C6E494F824003030EC
:10423000C2B2E36B581CE06304F1AC00C2543221FB
:1042400060200153B8E40A21E06A90FBF1F0E062DB
:10425000332160200153AFE44C20005B401C81B24D
:104260004C2001532F2160200153A5E400214C2054
:1042700001534E2001536069606235216020015373
:104280009AE4606A70B930214C20025B005B401CEC
:1042900083B24C20035304F17C008154362160200A
:1042A000015302E038216020015385E44E20005B79
:1042B000012807D12D2104F1AC00E26B8154E06BA1
:1042C000401CE0634C20005BA06337216020015359
:1042D00072E44C20005B00280FDD4C20005B401E88
:1042E00081B24C20015304F17C00425CE36B581C0A
:1042F000E06304F1AC00C25407E0002104F1AC001B
:10430000E26B81543A216020015355E4606A002831
:1043100005DA01214E200153606A40426062392172
:104320006020015348E4606A002817DD0A21606AB2
:1043300090FBF1F201FB12003030C1B24C20025B65
:10434000005B401C83B24C20035304F17C00815479
:104350000A21606A90FBF1F0606202E03621602081
:10436000015329E45E20015B6020015324E4002016
:10437000606300216020015300BF1DE410B5028D71
:10438000484B53F8222010470A22C26400224260A0
:10439000026001B181640122028510BD09220283FD
:1043A000826C1278302A02D10222028501E00322B7
:1043B0000285F2E7826C5278782A03D0826C5278B8
:1043C000582A05D11022C2644268921C42600CE057
:1043D000826C5278622A03D0826C5278422A04D1CD
:1043E0000222C2644268921C426003220285D4E722
:1043F0004368826CD25C3AB14368826CD25C80F8CC
:1044000044200422028501E008220285C5E790F8D5
:104410004420302A0ADB90F84420392A06DC90F840
:104420004420303A02720722028501E0052202850B
:10443000B3E790F84420412A0ADB90F84420462A4A
:1044400006DC90F84420373A02720722028501E028
:1044500006220285A1E790F84420612A0ADB90F841
:104460004420662A06DC90F84420573A027207225C
:10447000028503E006220283082202858DE7027A84
:10448000C46C036803FB042202604268521C426051
:104490000322028581E70022028500BF7DE700003C
:1044A00000007A446C01002010B5044604F5DF607A
:1044B0000AF0E7F8002807DD04F5DF62911E881E88
:1044C0000AF0DAF8012010BD0020FCE71CB5044614
:1044D000B4F87404FA4951F820000047B4F86E04A7
:1044E000082803D10B21A4F8741407E02046FFF735
:1044F000DBFF012802D10121A4F874141CBDF1A135
:1045000004F54270FFF747FBB4F868033B2808D175
:104510000221A4F872143821A4F874140021C4F8FC
:104520005014EBE704F254404FF4836104F2FA6351
:104530009A1ECDE90010911E881EFFF73DFA10B1BA
:104540000321A4F87414D9E794F854040D2803D176
:104550000421A4F8741424E094F8540420281DDBEA
:1045600094F85404802819DC04F254404FF400718C
:1045700004F116039A1ECDE90010911E881EFFF764
:10458000FFF904F25443402204F59A6104F5926065
:10459000FFF731FA0221A4F8741402E00221A4F812
:1045A0007414ABE704F254404FF4836104F2FA63ED
:1045B0009A1ECDE90010911E881EFFF7FDF910B17B
:1045C0000521A4F8741499E794F854040A280DD12D
:1045D000D4F8D00418B90221A4F8741410E006210C
:1045E000A4F872142921A4F8741409E0402204F5F7
:1045F0009A6104F59260FFF7F8F90921A4F87414A0
:104600007CE7B5A204F51B70D4F82C14FFF773FAFD
:104610004FF42570005B032802D10721A4F874141D
:104620006CE7402204F59A6104F59260FFF7DDF92A
:104630000821A4F8741461E7D4F86C0218B10921B8
:10464000A4F8741402E00A21A4F8741456E7A3A194
:1046500004F54270FFF79FFAB4F868033B2808D1CD
:104660000121A4F872143821A4F874140021C4F8AC
:10467000501443E7A3A104F54270FFF78CFAB4F895
:1046800068033B2808D13521A4F872143821A4F816
:1046900074140021C4F8501430E704F254404FF46D
:1046A000836104F2FA639A1ECDE90010911E881E00
:1046B000FFF782F918B1B4F85614A4F874141DE782
:1046C00094F854041B2806D10D21A4F856140B218C
:1046D000A4F8741405E00C21A4F856141E21A4F8C3
:1046E00074140BE794F854045B2806D10E21A4F847
:1046F00056140B21A4F8741405E00C21A4F85614E8
:104700001E21A4F87414F9E60C21A4F8561494F8A8
:104710005404412803D10F21A4F874141AE094F82A
:104720005404422803D11021A4F8741412E094F820
:104730005404442803D11821A4F874140AE094F80E
:104740005404432803D11921A4F8741402E00B2166
:10475000A4F87414D2E640F21B40005D012805D095
:1047600094F91E1494F9200481421CD0002140F2D7
:104770001B40015594F81814801E015594F91E042D
:1047800000EB001104F2D44000EB810090F84000EF
:1047900084F8180440F21E40015D001F01551121EC
:1047A000A4F8741402E00B21A4F87414A6E640F2F5
:1047B0001B40005D18B994F91C04022805DC94F92B
:1047C0001F1494F91D0481421CD0012140F21B40AA
:1047D000015594F81814801E015594F91F0400EB3C
:1047E000001104F2D44000EB810090F8400084F8FE
:1047F000180440F21F40015D401F01551121A4F82B
:10480000741402E00B21A4F8741477E694F91A14D6
:1048100001EB011204F2D44101EB820101F14000ED
:10482000FFF70DF9002803DD1221A4F8741402E04B
:104830000B21A4F8741461E694F91A0400EB001239
:1048400004F2D44000EB820104F5926204F51B707F
:10485000FFF751F94FF42570005B032802D11321B3
:10486000A4F874144AE6D4F86C0218B11421A4F820
:10487000741402E00B21A4F874143FE640F21940CE
:10488000015DD4F8D00481424EDA40F21940015D56
:1048900004F5926008444FF4007104F116039A1E67
:1048A000CDE90010911E881EFFF76AF840F219400A
:1048B000005D401CC1B240F21940015537E00000D4
:1048C0000C0D00200D0A4C6F67696E2050617373E8
:1048D000776F72643A200000313233000D0A0D0AFE
:1048E0002323204572726F723A2041757468656E99
:1048F0007469636174696F6E206661696C75726555
:104900000D0A00000D0A0D0A2323207368656C6CE4
:10491000206C6F67696E207375636365737366756A
:104920006C2E0D0A000000001521A4F87414E5E5B2
:104930000021C4F8501404F25443402204F59A6153
:1049400004F59260FFF769F830B11521A4F87214EC
:104950003621A4F8741402E01621A4F87414CDE5ED
:1049600094F91A0400EB001104F2D44000EB810129
:10497000D4F85004095C84F8551494F8550490B1A7
:1049800004F255404FF4007104F116039A1ECDE96C
:104990000010911E881EFEF7F3FFD4F85014491C36
:1049A000C4F8501405E01721A4F874140021C4F8C9
:1049B0005014A3E594F91A0400EB001104F2D4405A
:1049C00000EB8101D4F85004095C84F8551494F884
:1049D000550470B104F25543402204F59A6104F580
:1049E0009260FFF708F8D4F85014491CC4F850142A
:1049F0001CE094F91A14C81DC11700EB5171C910BD
:104A0000A0EBC1014AB240F21E410A5594F91A14B2
:104A1000481CC11700EB5171C910A0EBC1014AB28B
:104A200040F21F410A550B21A4F8741466E50821D1
:104A300084F8551494F81804002810DD04F2554049
:104A4000890104F116039A1ECDE90010911E881EFB
:104A5000FEF796FF94F81804401E84F818040B2102
:104A6000A4F874144AE594F81814D4F8D0048142D8
:104A700014DA94F8181404F5926008444FF40071A5
:104A800004F116039A1ECDE90010911E881EFEF750
:104A900077FF94F81804401C84F818040B21A4F83C
:104AA00074142BE594F85404082803D11A21A4F8AF
:104AB000741416E094F854040D2803D11F21A4F8AF
:104AC00074140EE094F85404202807DB94F854047E
:104AD000802803DC2521A4F8741402E00B21A4F83B
:104AE00074140BE504F254404FF4836104F2FA634A
:104AF0009A1ECDE90010911E881EFEF75DFF68B179
:104B000094F854040A2803D12021A4F8741405E071
:104B1000002084F818043721A4F87414EEE401216D
:104B200040F21B400155002084F8180494F91D142C
:104B3000C81DC11700EB5171C910A0EBC1014AB2E9
:104B400040F21E410A5504F59A60FEF778FF0028EE
:104B500003DD2121A4F8741402E03521A4F87414B3
:104B6000CCE494F91E0400EB001104F2D44000EBF5
:104B7000810204F5926104F51B70FEF7BCFF4FF44F
:104B80002570005B032802D12221A4F87414B5E437
:104B9000D4F86C02D8B194F91D2402EB021304F28C
:104BA000D44202EB830202F1400194F91D2402EB8E
:104BB000021304F2D44202EB83004022FEF715FFF9
:104BC0000021C4F850142321A4F8741405E02F2107
:104BD000A4F872142921A4F874148FE494F91D0424
:104BE00000EB001204F2D44000EB8200D4F8D014A1
:104BF00001642421A4F872143421A4F874147DE40F
:104C000040F21D40015D401C015500BF94F91D1488
:104C1000481CC11700EB5171C910A0EBC1014AB289
:104C200040F21D410A550846015D801C015500BF38
:104C300094F91C0408280BDA40F21C40005D401C6B
:104C400041B240F21C4001550721001D015504E00E
:104C500040F21E40015D801C01552F21A4F8721402
:104C60002921A4F8741449E4D4F8D0043F2803D1CE
:104C70000B21A4F8741409E094F81814D4F8D004A3
:104C8000411AC4F850142621A4F8741436E4D4F858
:104C90005004B0B194F81814D4F850040144491EDB
:104CA00004F59260415C94F81824D4F8500402444E
:104CB00004F592608154D4F85014491EC4F850147D
:104CC00018E094F8541494F81824501C84F818042C
:104CD00004F5926081540022D4F8D014491CC4F821
:104CE000D014425494F81814491EC4F850142721C3
:104CF000A4F8741402E4D4F85014D4F8D004814217
:104D000015D204F59260D4F8501408444FF40071A1
:104D100004F116039A1ECDE90010911E881EFEF7BD
:104D20002FFED4F85014491CC4F8501409E094F82C
:104D30001814D4F8D004411AC4F850142821A4F847
:104D400074142EE4082184F85514D4F8500488B162
:104D500004F25540890104F116039A1ECDE90010B2
:104D6000911E881EFEF70CFED4F85014491EC4F89C
:104D7000501402E00B21A4F8741412E494F81804FF
:104D800000280BDDD4F8D004002807DD94F81814AF
:104D9000C4F850141B21A4F8741402E00B21A4F8E9
:104DA000741410E4D4F85014D4F8D00481420CD216
:104DB00004F59260D4F85014425C491E4254D4F871
:104DC0005014491CC4F8501424E0D4F8D014491EDF
:104DD000C4F8D01494F81804401E84F81804002174
:104DE00004F59260D4F8D0248154082184F8551435
:104DF0003B38890104F116039A1ECDE90010911E7B
:104E0000881EFEF7BDFD94F81814C4F850141C2138
:104E1000A4F8741404E4D4F85014D4F8D0048142F3
:104E200015D204F59260D4F8501408444FF4007180
:104E300004F116039A1ECDE90010911E881EFEF79C
:104E40009FFDD4F85014491CC4F8501419E02021D7
:104E500084F8551404F25540090104F116039A1E12
:104E6000CDE90010911E881EFEF78AFD1D21A4F8D1
:104E7000741494F81814D4F8D004411A491CC4F8D6
:104E8000501409E4082184F85514D4F8500488B16A
:104E900004F25540890104F116039A1ECDE9001071
:104EA000911E881EFEF76CFDD4F85014491EC4F8FC
:104EB000501402E00B21A4F8741412E40021C4F889
:104EC0007C143A2204F5926104F50670FEF7BCFDED
:104ED0004FF41070005B072802D12A21A4F8741443
:104EE00011E44FF41770005940B14FF41770015995
:104EF000C4F87C142B21A4F8741409E0D4F87C04C1
:104F000018B904F59261C4F87C142C21A4F8741427
:104F100020E43A22002104F50670FEF795FD4FF4D7
:104F20001070005B072802D12A21A4F8741411E440
:104F300000214FF485600155202204F50670D4F855
:104F40007C14FEF781FD4FF41070005B072802D13E
:104F50002D21A4F8741429E44FF417700059D0B12E
:104F60004FF48560005D082815DA4FF41770015979
:104F70004FF48560025D04F22C4040F822104FF49B
:104F80008560005D401CC1B24FF4856001552E2143
:104F9000A4F8741403E0B4F87214A4F8741405E4CB
:104FA0002022002104F50670FEF74EFD4FF410702C
:104FB000005B072802D12D21A4F8741425E4A16810
:104FC000A1F10C0040F2244108513021A4F87414DE
:104FD0001BE40021C4F8501440F2244000590C3066
:104FE00004F10801884203D03221A4F874140AE0C5
:104FF0004FF48560005D18B93521A4F8741402E0FF
:105000003721A4F8741416E4D4F86C0218B93921C5
:10501000A4F874140BE040F224421259D168A1F1B3
:105020000C0040F2244108513021A4F8741419E412
:1050300040F224400059026804F51B70D4F82C1487
:10504000FEF759FD4FF42570005B032802D1312192
:10505000A4F8741406E400BF94F91D0400EB0011D9
:1050600004F2D44000EB810204F5926104F52E7045
:10507000FEF76EFD4FF43870005B022802D1242148
:10508000A4F8741453E44FF48561085D091F0959AD
:105090008A6804F22C41904740F24C4108513A2171
:1050A000A4F8741443E440F24C400059012806D19E
:1050B0003521A4F874140021C4F8501416E040F20D
:1050C0004C40005918B93921A4F874140EE040F28C
:1050D0004C4000590C2809D1402204F59A6104F58E
:1050E0009260FEF782FC3B21A4F874141FE493A1A4
:1050F00004F54270FEF74FFDB4F868033B2808D171
:105100000021A4F872143821A4F874140021C4F802
:1051100050140CE493A296A104F54270FEF73BFDF7
:10512000B4F868033B2808D13821A4F874143C2152
:10513000A4F872140021C4F8501410E48DA104F5F1
:105140004270FEF728FDB4F868033B2805D13821EA
:10515000A4F874140021C4F850142AE486A104F5BC
:105160004270FEF718FDB4F868033B2808D13821D7
:10517000A4F874143521A4F872140021C4F8501452
:1051800017E404F56D70D4F85014405CA8B104F530
:105190006D70D4F8501408444FF4007104F11603F4
:1051A0009A1ECDE90010911E881EFEF7E9FBD4F887
:1051B0005014491CC4F8501403E0B4F87214A4F855
:1051C000741433E4402204F59A6104F59260FEF70A
:1051D0000CFC0B21A4F8741400BF27E41CB5044692
:1051E00040F63C30005B6F4951F82000004704F660
:1051F0001D304FF4007104F116039A1ECDE9001022
:10520000911E881EFEF7D8FB18B1012140F63C30F4
:1052100001531CBD80216068FEF716FB012803D1F5
:10522000022140F63C300153F3E740F61D32115D98
:105230006068FEF7B2FA002140F63C30015300BF2F
:10524000E7E71CB5044640F63C30005B564951F890
:105250002000004704F61D304FF4007104F11603DE
:105260009A1ECDE90010911E881EFEF7A5FB18B10D
:10527000012140F63C3001531CBD0121D4F8680BDC
:1052800003F0FEFF022803D1022140F63C30015317
:10529000F2E740F61D32115DD4F8680B04F000F817
:1052A000002140F63C30015300BFE5E71CB5044641
:1052B0003E484FF483613E4B9A1ECDE90010911E8B
:1052C000881EFEF75DFB1CBD3EB5044620216068CC
:1052D000FEF7BAFA88B16068FEF763FAC0B20290CE
:1052E00002A84FF4836104F2FA639A1ECDE900101C
:1052F000911E881EFEF744FB00BF3EBD3EB504462E
:1053000040F225516068FEF7ABFAB0B16068FEF775
:1053100048FAC0B2029002A84FF4836104F2FA6323
:105320009A1ECDE90010911E881EFEF729FB40F25F
:1053300025516068FEF7BAFA00BF3EBD201B5B48EE
:105340001B5B4A2323207368656C6C206C6F676F4E
:105350007574207375636365737366756C2E0D0ABF
:10536000000000000D0A7368656C6C3A7E23200013
:1053700025730000082008000D0A0D0A232320458C
:1053800072726F723A20496E737420556E65787030
:10539000656374656420657863657074696F6E0D0C
:1053A0000A000000000E00200C0E002058150020FE
:1053B0008A0800204A68486001604260106000BFAF
:1053C00070477CB504460D46FA48808DFA4951F87D
:1053D00020000047012C03D10121F648818502E01D
:1053E0000221F448818500207CBDF4A1F548FEF738
:1053F000D2FBF048B0F824033B2804D10321ED4848
:105400008185002181600020EEE7EFA1ED48FEF7E5
:10541000C2FBE848B0F824033B2804D10321E54847
:105420008185002181600020DEE7E248816800F587
:105430005C70405CA0B1DF48816800F55C70084496
:105440004FF40071EB4B9A1ECDE90010911E881E9F
:10545000FEF796FAD7488068401CD649886004E079
:105460000021D44881850120BEE70020BCE77CB53F
:1054700004460D46CF48808DDF4951F82000004793
:10548000012C0AD1DB4A163A9168A1F10C00C949F6
:1054900008600221C748818502E00121C548818555
:1054A00000207CBDC8A1C748FEF775FBC148B0F815
:1054B00024033B2804D10521BE4881850021816059
:1054C0000020EEE7BB4800680C30CA490E3988421C
:1054D00005D00321B74881850021816004E00021C7
:1054E000B44881850120DCE70020DAE7B148006894
:1054F0004168B0488068085CA8B1AE48006841685F
:10550000AC48806808444FF40071BA4B9A1ECDE94C
:105510000010911E881EFEF733FAA6488068401CD2
:10552000A449886002E00421A24881850020B8E7F0
:10553000A04A1268D168A1F10C009E4908600221BE
:105540009C4881850020ACE79A48816800F55C7032
:10555000405CA0B19748816800F55C7008444FF446
:105560000071A44B9A1ECDE90010911E881EFEF713
:1055700007FA90488068401C8E49886004E000214A
:105580008C48818501208CE700208AE77CB50546A0
:105590000C468848808D994951F820000047032D1A
:1055A00003D101218348818502E00C218148818556
:1055B00000207CBD834850386168FEF7DFFE7D48DF
:1055C000B0F89C02082802D102217A488185002087
:1055D000EFE77848B0F88C02062803D10C21754813
:1055E000818507E07348B0F8740281B27148018286
:1055F000032181850020DCE76E48008A38B98048A5
:105600006C49C1F8D40304216A48818502E00C2169
:10561000684881850020CCE76A485038A168FEF7C9
:10562000ADFE6448B0F89C02082802D1052161480B
:1056300081850020BDE75F48B0F88C02062803D1C1
:105640000C215C4881850FE05A48B0F8740281B2A1
:105650005848C181C089042803DB0C215548818545
:1056600002E00621534881850020A2E75148817B52
:105670006348826E904707214E488185002098E755
:105680004C48D0F87432028A5EA14E48FEF783FA85
:1056900008214848818500208BE74648B0F824035C
:1056A0003B2805D10B21434881850021816002E020
:1056B00007214048818500207BE73E48D0F87432BE
:1056C000028A58A13F48FEF766FA0A2139488185C7
:1056D00000206EE73748B0F824033B2805D10B21A2
:1056E000344881850021816002E0092131488185AB
:1056F00000205EE72F48816800F55C70405CA0B137
:105700002C48816800F55C7008444FF40071394BF7
:105710009A1ECDE90010911E881EFEF731F925482A
:105720008068401C2349886004E00021214881856D
:1057300001203EE700203CE723A12248FEF72BFA98
:105740001C48B0F824033B2804D10B21194881855B
:105750000021816000202CE72DE9FC4104468846A9
:105760001448808D384951F820000047012C03D19E
:1057700001211048818502E003210E488185002027
:10578000BDE8FC816420009030480368304831490E
:1057900002680C48FEF7FFF90648B0F824033B28DE
:1057A00006D10421034881850521418500218160BE
:1057B0000020E5E7F42D0020180E0020201B5B4898
:1057C0001B5B4A00B83000200D0A0D0A2323204538
:1057D00072726F723A20496E737420556E657870DC
:1057E000656374656420657863657074696F6E0DB8
:1057F0000A000000A6010020280E0020400E002014
:10580000241400200D0A2323204C45442025642025
:1058100073657420746F204D6F64652025640D0AD4
:10582000000000000D0A2323204572726F723A2097
:105830004C45442025642073657420746F204D6F9F
:1058400064652025640D0A00740E00202C000020E1
:105850003000002064EB00080021F8488185012019
:105860008EE7AFF29C01F648FEF795F9F348B0F8E1
:1058700024033B2806D10421F0488185022141857B
:105880000021816000207BE7EC48816800F55C70B6
:10589000405CA0B1E948816800F55C7008444FF4B1
:1058A0000071E84B9A1ECDE90010911E881EFEF78C
:1058B00067F8E2488068401CE049886002E0DF4801
:1058C000418D818500205BE709F030F9A0F5806506
:1058D000FAF71CFC064609F029F9074633463A4612
:1058E000D9A1D7480095FEF756F9D448B0F824035B
:1058F0003B2806D10421D148818502214185002120
:10590000816000203CE77CB504460D46CB48808D85
:10591000DB4951F820000047022C07D10020C7497D
:1059200081F848000121C548818502E00421C3486F
:10593000818500207CBDC24850386968FEF71EFD95
:10594000BE48B0F89C02082802D10221BB488185DC
:105950000020EFE7B948B0F88C02062803D10421F3
:10596000B648818507E0B548B0F8740281B2B34803
:105970000182032181850020DCE7B048008A0428E9
:1059800006DA0621AD4881854FF47A71416402E060
:105990000421AA4881850020CCE7AFF2D411A848A1
:1059A000FEF7F9F8A548B0F824033B2804D10521F7
:1059B000A2488185002181600020BBE79F48816863
:1059C00000F55C70405CA0B19C48816800F55C709B
:1059D00008444FF400719B4B9A1ECDE90010911EB4
:1059E000881EFDF7CDFF95488068401C934988606C
:1059F00004E000219148818501209BE7002099E780
:105A00008E49087C05F04AF9052803D108218B4806
:105A1000818515E08B481638FEF746FD012803D135
:105A20000F21864881850BE08448406C28B183486B
:105A3000406C401E8149486402E007217F4881850F
:105A4000002077E77D48028A8EA17D48FEF7A3F803
:105A50007A48B0F824033B2806D10F2177484185C6
:105A60000D21818500218160002063E7734A92F84F
:105A70004810107C05F004FA092170488185002047
:105A800058E76E49087C05F01FF9012802D10A2168
:105A90006A48818500204DE76849087C05F02AF9AD
:105AA00066494860087C05F0E2F86448406818B927
:105AB0000B21624881850AE060484068402803D194
:105AC00010215E48818502E00C215C488185002020
:105AD00030E75A4890F8482072A15948FEF75BF821
